{
  "contractName": "PokerRoom",
  "abi": [
    {
      "inputs": [
        {
          "internalType": "uint256",
          "name": "gameFee_",
          "type": "uint256"
        },
        {
          "internalType": "uint256",
          "name": "cipher_modulo_",
          "type": "uint256"
        }
      ],
      "stateMutability": "nonpayable",
      "type": "constructor"
    },
    {
      "anonymous": false,
      "inputs": [
        {
          "indexed": true,
          "internalType": "address",
          "name": "previousOwner",
          "type": "address"
        },
        {
          "indexed": true,
          "internalType": "address",
          "name": "newOwner",
          "type": "address"
        }
      ],
      "name": "OwnershipTransferred",
      "type": "event"
    },
    {
      "inputs": [],
      "name": "owner",
      "outputs": [
        {
          "internalType": "address",
          "name": "",
          "type": "address"
        }
      ],
      "stateMutability": "view",
      "type": "function"
    },
    {
      "inputs": [],
      "name": "renounceOwnership",
      "outputs": [],
      "stateMutability": "nonpayable",
      "type": "function"
    },
    {
      "inputs": [
        {
          "internalType": "address",
          "name": "newOwner",
          "type": "address"
        }
      ],
      "name": "transferOwnership",
      "outputs": [],
      "stateMutability": "nonpayable",
      "type": "function"
    },
    {
      "inputs": [
        {
          "internalType": "uint256",
          "name": "gameFee_",
          "type": "uint256"
        }
      ],
      "name": "setGameFee",
      "outputs": [],
      "stateMutability": "nonpayable",
      "type": "function"
    },
    {
      "inputs": [
        {
          "internalType": "uint256",
          "name": "cipher_modulo_",
          "type": "uint256"
        }
      ],
      "name": "setCipherModulo",
      "outputs": [],
      "stateMutability": "nonpayable",
      "type": "function"
    },
    {
      "inputs": [
        {
          "internalType": "address",
          "name": "_address",
          "type": "address"
        },
        {
          "internalType": "uint256",
          "name": "amount",
          "type": "uint256"
        }
      ],
      "name": "widthdraw",
      "outputs": [],
      "stateMutability": "payable",
      "type": "function"
    },
    {
      "inputs": [],
      "name": "createGame",
      "outputs": [
        {
          "internalType": "uint256",
          "name": "",
          "type": "uint256"
        }
      ],
      "stateMutability": "payable",
      "type": "function"
    },
    {
      "inputs": [
        {
          "internalType": "uint256",
          "name": "gameId",
          "type": "uint256"
        }
      ],
      "name": "enterGame",
      "outputs": [],
      "stateMutability": "payable",
      "type": "function"
    },
    {
      "inputs": [
        {
          "internalType": "uint256",
          "name": "gameId",
          "type": "uint256"
        },
        {
          "internalType": "uint256",
          "name": "card1Hash",
          "type": "uint256"
        },
        {
          "internalType": "uint256",
          "name": "card2Hash",
          "type": "uint256"
        }
      ],
      "name": "provideCardHashesForDealing",
      "outputs": [],
      "stateMutability": "nonpayable",
      "type": "function"
    },
    {
      "inputs": [
        {
          "internalType": "uint256",
          "name": "gameId",
          "type": "uint256"
        },
        {
          "internalType": "uint8",
          "name": "gameStateCode",
          "type": "uint8"
        },
        {
          "internalType": "uint8",
          "name": "actionTypeCode",
          "type": "uint8"
        }
      ],
      "name": "makeTurn",
      "outputs": [],
      "stateMutability": "payable",
      "type": "function"
    },
    {
      "inputs": [
        {
          "internalType": "uint256",
          "name": "gameId",
          "type": "uint256"
        },
        {
          "internalType": "uint256",
          "name": "gameStateCode",
          "type": "uint256"
        },
        {
          "internalType": "uint256[3]",
          "name": "newCardHashes",
          "type": "uint256[3]"
        },
        {
          "internalType": "uint256[3]",
          "name": "newCards",
          "type": "uint256[3]"
        }
      ],
      "name": "openNextCards",
      "outputs": [],
      "stateMutability": "nonpayable",
      "type": "function"
    },
    {
      "inputs": [
        {
          "internalType": "uint256",
          "name": "gameId",
          "type": "uint256"
        },
        {
          "internalType": "uint256",
          "name": "privatePower",
          "type": "uint256"
        },
        {
          "internalType": "uint256",
          "name": "claimedHandCode",
          "type": "uint256"
        },
        {
          "internalType": "uint8",
          "name": "claimedCombination",
          "type": "uint8"
        }
      ],
      "name": "submitKeys",
      "outputs": [],
      "stateMutability": "nonpayable",
      "type": "function"
    },
    {
      "inputs": [
        {
          "internalType": "uint256",
          "name": "gameId",
          "type": "uint256"
        }
      ],
      "name": "claimWin",
      "outputs": [],
      "stateMutability": "payable",
      "type": "function"
    }
  ],
  "bytecode": "0x60806040523480156200001157600080fd5b506040516200493a3803806200493a83398181016040528101906200003791906200035e565b620000576200004b6200027b60201b60201c565b6200028360201b60201c565b81600581905550806004819055506003600260006003600a811115620000825762000081620003af565b5b600a811115620000975762000096620003af565b5b815260200190815260200160002060006101000a81548160ff021916908360ff1602179055506004600260006005600a811115620000da57620000d9620003af565b5b600a811115620000ef57620000ee620003af565b5b815260200190815260200160002060006101000a81548160ff021916908360ff1602179055506005600260006007600a811115620001325762000131620003af565b5b600a811115620001475762000146620003af565b5b815260200190815260200160002060006101000a81548160ff021916908360ff1602179055506003600160006003600a8111156200018a5762000189620003af565b5b600a8111156200019f576200019e620003af565b5b815260200190815260200160002060006101000a81548160ff021916908360ff16021790555060018060006005600a811115620001e157620001e0620003af565b5b600a811115620001f657620001f5620003af565b5b815260200190815260200160002060006101000a81548160ff021916908360ff16021790555060018060006007600a811115620002385762000237620003af565b5b600a8111156200024d576200024c620003af565b5b815260200190815260200160002060006101000a81548160ff021916908360ff1602179055505050620003fd565b600033905090565b60008060009054906101000a900473ffffffffffffffffffffffffffffffffffffffff169050816000806101000a81548173ffffffffffffffffffffffffffffffffffffffff021916908373ffffffffffffffffffffffffffffffffffffffff1602179055508173ffffffffffffffffffffffffffffffffffffffff168173ffffffffffffffffffffffffffffffffffffffff167f8be0079c531659141344cd1fd0a4f28419497f9722a3daafe3b4186f6b6457e060405160405180910390a35050565b6000815190506200035881620003e3565b92915050565b60008060408385031215620003785762000377620003de565b5b6000620003888582860162000347565b92505060206200039b8582860162000347565b9150509250929050565b6000819050919050565b7f4e487b7100000000000000000000000000000000000000000000000000000000600052602160045260246000fd5b600080fd5b620003ee81620003a5565b8114620003fa57600080fd5b50565b61452d806200040d6000396000f3fe6080604052600436106100c25760003560e01c80638da5cb5b1161007f578063c74b197c11610059578063c74b197c14610203578063ee0144ab1461021f578063f1fb32331461023b578063f2fde38b14610264576100c2565b80638da5cb5b14610186578063a38bcc78146101b1578063a7c3459e146101da576100c2565b806311332315146100c75780632de43995146100f057806343d6582b14610119578063715018a6146101355780637255d7291461014c5780637eb7c5681461016a575b600080fd5b3480156100d357600080fd5b506100ee60048036038101906100e9919061376e565b61028d565b005b3480156100fc57600080fd5b5061011760048036038101906101129190613830565b610313565b005b610133600480360381019061012e919061376e565b610832565b005b34801561014157600080fd5b5061014a610f1a565b005b610154610fa2565b6040516101619190613cec565b60405180910390f35b610184600480360381019061017f91906138ea565b611308565b005b34801561019257600080fd5b5061019b611cf3565b6040516101a89190613b31565b60405180910390f35b3480156101bd57600080fd5b506101d860048036038101906101d3919061376e565b611d1c565b005b3480156101e657600080fd5b5061020160048036038101906101fc91906137c8565b611da2565b005b61021d6004803603810190610218919061372e565b6121f7565b005b6102396004803603810190610234919061376e565b6122be565b005b34801561024757600080fd5b50610262600480360381019061025d9190613883565b612505565b005b34801561027057600080fd5b5061028b60048036038101906102869190613701565b6129ab565b005b610295612aa3565b73ffffffffffffffffffffffffffffffffffffffff166102b3611cf3565b73ffffffffffffffffffffffffffffffffffffffff1614610309576040517f08c379a000000000000000000000000000000000000000000000000000000000815260040161030090613c2c565b60405180910390fd5b8060048190555050565b82806008805490501161035b576040517f08c379a000000000000000000000000000000000000000000000000000000000815260040161035290613c4c565b60405180910390fd5b60018481600a8111156103715761037061409a565b5b60108281548110610385576103846140c9565b5b90600052602060002090602091828204019190069054906101000a900460ff16600a8111156103b7576103b661409a565b5b146103f7576040517f08c379a00000000000000000000000000000000000000000000000000000000081526004016103ee90613bac565b60405180910390fd5b853373ffffffffffffffffffffffffffffffffffffffff1660118281548110610423576104226140c9565b5b9060005260206000200160009054906101000a900473ffffffffffffffffffffffffffffffffffffffff1673ffffffffffffffffffffffffffffffffffffffff16146104a4576040517f08c379a000000000000000000000000000000000000000000000000000000000815260040161049b90613c0c565b60405180910390fd5b600060026001601260008b815260200190815260200160002060003373ffffffffffffffffffffffffffffffffffffffff1673ffffffffffffffffffffffffffffffffffffffff168152602001908152602001600020546105059190613d9a565b61050f9190613fda565b90506000600267ffffffffffffffff81111561052e5761052d6140f8565b5b60405190808252806020026020018201604052801561055c5781602001602082028036833780820191505090505b5090508781600081518110610574576105736140c9565b5b6020026020010181815250508681600181518110610595576105946140c9565b5b602002602001018181525050600260078a815481106105b7576105b66140c9565b5b9060005260206000200183815481106105d3576105d26140c9565b5b906000526020600020018054905014610621576040517f08c379a000000000000000000000000000000000000000000000000000000000815260040161061890613b4c565b60405180910390fd5b60005b600281101561071657600060078b81548110610643576106426140c9565b5b90600052602060002001848154811061065f5761065e6140c9565b5b90600052602060002001828154811061067b5761067a6140c9565b5b90600052602060002001541461069057600080fd5b8181815181106106a3576106a26140c9565b5b602002602001015160078b815481106106bf576106be6140c9565b5b9060005260206000200184815481106106db576106da6140c9565b5b9060005260206000200182815481106106f7576106f66140c9565b5b90600052602060002001819055508061070f90613f91565b9050610624565b506006898154811061072b5761072a6140c9565b5b906000526020600020018281548110610747576107466140c9565b5b9060005260206000200160009054906101000a900473ffffffffffffffffffffffffffffffffffffffff1660118a81548110610786576107856140c9565b5b9060005260206000200160006101000a81548173ffffffffffffffffffffffffffffffffffffffff021916908373ffffffffffffffffffffffffffffffffffffffff160217905550600082141561082757600260108a815481106107ed576107ec6140c9565b5b90600052602060002090602091828204019190066101000a81548160ff0219169083600a8111156108215761082061409a565b5b02179055505b505050505050505050565b80806008805490501161087a576040517f08c379a000000000000000000000000000000000000000000000000000000000815260040161087190613c4c565b60405180910390fd5b60008281600a8111156108905761088f61409a565b5b601082815481106108a4576108a36140c9565b5b90600052602060002090602091828204019190069054906101000a900460ff16600a8111156108d6576108d561409a565b5b14610916576040517f08c379a000000000000000000000000000000000000000000000000000000000815260040161090d90613bac565b60405180910390fd5b836000600a81111561092b5761092a61409a565b5b6010828154811061093f5761093e6140c9565b5b90600052602060002090602091828204019190069054906101000a900460ff16600a8111156109715761097061409a565b5b146109b1576040517f08c379a00000000000000000000000000000000000000000000000000000000081526004016109a890613ccc565b60405180910390fd5b60005b600682815481106109c8576109c76140c9565b5b9060005260206000200180549050811015610ab7573373ffffffffffffffffffffffffffffffffffffffff1660068381548110610a0857610a076140c9565b5b906000526020600020018281548110610a2457610a236140c9565b5b9060005260206000200160009054906101000a900473ffffffffffffffffffffffffffffffffffffffff1673ffffffffffffffffffffffffffffffffffffffff161415610aa6576040517f08c379a0000000000000000000000000000000000000000000000000000000008152600401610a9d90613c6c565b60405180910390fd5b80610ab090613f91565b90506109b4565b50600060068281548110610ace57610acd6140c9565b5b9060005260206000200180549050905060026001610aec9190613fda565b811415610b625760088281548110610b0757610b066140c9565b5b9060005260206000200154600554610b1f9190613d9a565b341015610b61576040517f08c379a0000000000000000000000000000000000000000000000000000000008152600401610b5890613c8c565b60405180910390fd5b5b600280610b6f9190613fda565b811415610bf15760088281548110610b8a57610b896140c9565b5b90600052602060002001546002610ba19190613e89565b600554610bae9190613d9a565b341015610bf0576040517f08c379a0000000000000000000000000000000000000000000000000000000008152600401610be790613bec565b60405180910390fd5b5b600060068781548110610c0757610c066140c9565b5b90600052602060002001805490509050806012600089815260200190815260200160002060003373ffffffffffffffffffffffffffffffffffffffff1673ffffffffffffffffffffffffffffffffffffffff1681526020019081526020016000208190555060068781548110610c8057610c7f6140c9565b5b90600052602060002001339080600181540180825580915050600190039060005260206000200160009091909190916101000a81548173ffffffffffffffffffffffffffffffffffffffff021916908373ffffffffffffffffffffffffffffffffffffffff16021790555060006001821415610d185760088881548110610d0a57610d096140c9565b5b906000526020600020015490505b6002821415610d4f5760088881548110610d3557610d346140c9565b5b90600052602060002001546002610d4c9190613e89565b90505b60098881548110610d6357610d626140c9565b5b9060005260206000200154811115610d99578060098981548110610d8a57610d896140c9565b5b90600052602060002001819055505b600e8881548110610dad57610dac6140c9565b5b90600052602060002001819080600181540180825580915050600190039060005260206000200160009091909190915055600260068981548110610df457610df36140c9565b5b90600052602060002001805490501415610f1057600160108981548110610e1e57610e1d6140c9565b5b90600052602060002090602091828204019190066101000a81548160ff0219169083600a811115610e5257610e5161409a565b5b021790555060068881548110610e6b57610e6a6140c9565b5b90600052602060002001600081548110610e8857610e876140c9565b5b9060005260206000200160009054906101000a900473ffffffffffffffffffffffffffffffffffffffff1660118981548110610ec757610ec66140c9565b5b9060005260206000200160006101000a81548173ffffffffffffffffffffffffffffffffffffffff021916908373ffffffffffffffffffffffffffffffffffffffff1602179055505b5050505050505050565b610f22612aa3565b73ffffffffffffffffffffffffffffffffffffffff16610f40611cf3565b73ffffffffffffffffffffffffffffffffffffffff1614610f96576040517f08c379a0000000000000000000000000000000000000000000000000000000008152600401610f8d90613c2c565b60405180910390fd5b610fa06000612aab565b565b6000600554600554341015610fec576040517f08c379a0000000000000000000000000000000000000000000000000000000008152600401610fe390613cac565b60405180910390fd5b6000610ff86003612b6f565b905060006005543461100a9190613ee3565b9050600060028261101b9190613e27565b90506008819080600181540180825580915050600190039060005260206000200160009091909190915055600960009080600181540180825580915050600190039060005260206000200160009091909190915055600a60009080600181540180825580915050600190039060005260206000200160009091909190916101000a81548173ffffffffffffffffffffffffffffffffffffffff021916908373ffffffffffffffffffffffffffffffffffffffff160217905550601160009080600181540180825580915050600190039060005260206000200160009091909190916101000a81548173ffffffffffffffffffffffffffffffffffffffff021916908373ffffffffffffffffffffffffffffffffffffffff160217905550600b60009080600181540180825580915050600190039060005260206000200160009091909190915055606060068190806001815401808255809150506001900390600052602060002001600090919091909150908051906020019061119f92919061337c565b506060600e819080600181540180825580915050600190039060005260206000200160009091909190915090805190602001906111dd929190613406565b506111e6613453565b600c819080600181540180825580915050600190039060005260206000200160009091909190915090600561121c929190613475565b50611225613453565b600d819080600181540180825580915050600190039060005260206000200160009091909190915090600561125b929190613475565b506112646134c2565b6007819080600181540180825580915050600190039060005260206000200160009091909190915090600261129a9291906134ef565b506010600090806001815401808255809150506001900390600052602060002090602091828204019190069091909190916101000a81548160ff0219169083600a8111156112eb576112ea61409a565b5b02179055506112f988610832565b87995050505050505050505090565b828060088054905011611350576040517f08c379a000000000000000000000000000000000000000000000000000000000815260040161134790613c4c565b60405180910390fd5b8260ff16600a8111156113665761136561409a565b5b8481600a81111561137a5761137961409a565b5b6010828154811061138e5761138d6140c9565b5b90600052602060002090602091828204019190069054906101000a900460ff16600a8111156113c0576113bf61409a565b5b14611400576040517f08c379a00000000000000000000000000000000000000000000000000000000081526004016113f790613bac565b60405180910390fd5b853373ffffffffffffffffffffffffffffffffffffffff166011828154811061142c5761142b6140c9565b5b9060005260206000200160009054906101000a900473ffffffffffffffffffffffffffffffffffffffff1673ffffffffffffffffffffffffffffffffffffffff16146114ad576040517f08c379a00000000000000000000000000000000000000000000000000000000081526004016114a490613c0c565b60405180910390fd5b866002600a8111156114c2576114c161409a565b5b601082815481106114d6576114d56140c9565b5b90600052602060002090602091828204019190069054906101000a900460ff16600a8111156115085761150761409a565b5b148061156b57506004600a8111156115235761152261409a565b5b60108281548110611537576115366140c9565b5b90600052602060002090602091828204019190069054906101000a900460ff16600a8111156115695761156861409a565b5b145b806115cd57506006600a8111156115855761158461409a565b5b60108281548110611599576115986140c9565b5b90600052602060002090602091828204019190069054906101000a900460ff16600a8111156115cb576115ca61409a565b5b145b8061162f57506008600a8111156115e7576115e661409a565b5b601082815481106115fb576115fa6140c9565b5b90600052602060002090602091828204019190069054906101000a900460ff16600a81111561162d5761162c61409a565b5b145b61166e576040517f08c379a000000000000000000000000000000000000000000000000000000000815260040161166590613bac565b60405180910390fd5b6000601260008a815260200190815260200160002060003373ffffffffffffffffffffffffffffffffffffffff1673ffffffffffffffffffffffffffffffffffffffff168152602001908152602001600020549050600060026001836116d49190613d9a565b6116de9190613fda565b905060068a815481106116f4576116f36140c9565b5b9060005260206000200181815481106117105761170f6140c9565b5b9060005260206000200160009054906101000a900473ffffffffffffffffffffffffffffffffffffffff1660118b8154811061174f5761174e6140c9565b5b9060005260206000200160006101000a81548173ffffffffffffffffffffffffffffffffffffffff021916908373ffffffffffffffffffffffffffffffffffffffff16021790555060008860ff1660038111156117af576117ae61409a565b5b9050600060038111156117c5576117c461409a565b5b8160038111156117d8576117d761409a565b5b14156118ec57600a60108c815481106117f4576117f36140c9565b5b90600052602060002090602091828204019190066101000a81548160ff0219169083600a8111156118285761182761409a565b5b021790555060068b81548110611841576118406140c9565b5b90600052602060002001828154811061185d5761185c6140c9565b5b9060005260206000200160009054906101000a900473ffffffffffffffffffffffffffffffffffffffff1660118c8154811061189c5761189b6140c9565b5b9060005260206000200160006101000a81548173ffffffffffffffffffffffffffffffffffffffff021916908373ffffffffffffffffffffffffffffffffffffffff160217905550505050611ce9565b6003808111156118ff576118fe61409a565b5b8160038111156119125761191161409a565b5b1415611a465760098b8154811061192c5761192b6140c9565b5b906000526020600020015460026119439190613e89565b600e8c81548110611957576119566140c9565b5b906000526020600020018481548110611973576119726140c9565b5b9060005260206000200154600261198a9190613e89565b346119959190613d9a565b10156119d6576040517f08c379a00000000000000000000000000000000000000000000000000000000081526004016119cd90613bcc565b60405180910390fd5b600e8b815481106119ea576119e96140c9565b5b906000526020600020018381548110611a0657611a056140c9565b5b906000526020600020015434611a1c9190613d9a565b60098c81548110611a3057611a2f6140c9565b5b9060005260206000200181905550505050611ce9565b60026003811115611a5a57611a5961409a565b5b816003811115611a6d57611a6c61409a565b5b1415611b415734600e8c81548110611a8857611a876140c9565b5b906000526020600020018481548110611aa457611aa36140c9565b5b9060005260206000200154611ab99190613d9a565b60098c81548110611acd57611acc6140c9565b5b90600052602060002001541115611ae357600080fd5b60098b81548110611af757611af66140c9565b5b9060005260206000200154600e8c81548110611b1657611b156140c9565b5b906000526020600020018481548110611b3257611b316140c9565b5b90600052602060002001819055505b60016003811115611b5557611b5461409a565b5b816003811115611b6857611b6761409a565b5b1415611c0957600e8b81548110611b8257611b816140c9565b5b906000526020600020018381548110611b9e57611b9d6140c9565b5b906000526020600020015460098c81548110611bbd57611bbc6140c9565b5b906000526020600020015414611c08576040517f08c379a0000000000000000000000000000000000000000000000000000000008152600401611bff90613b6c565b60405180910390fd5b5b600082148015611c705750600e8b81548110611c2857611c276140c9565b5b906000526020600020018281548110611c4457611c436140c9565b5b906000526020600020015460098c81548110611c6357611c626140c9565b5b9060005260206000200154145b15611ce55760018a611c829190613df0565b60ff16600a811115611c9757611c9661409a565b5b60108c81548110611cab57611caa6140c9565b5b90600052602060002090602091828204019190066101000a81548160ff0219169083600a811115611cdf57611cde61409a565b5b02179055505b5050505b5050505050505050565b60008060009054906101000a900473ffffffffffffffffffffffffffffffffffffffff16905090565b611d24612aa3565b73ffffffffffffffffffffffffffffffffffffffff16611d42611cf3565b73ffffffffffffffffffffffffffffffffffffffff1614611d98576040517f08c379a0000000000000000000000000000000000000000000000000000000008152600401611d8f90613c2c565b60405180910390fd5b8060058190555050565b838060088054905011611dea576040517f08c379a0000000000000000000000000000000000000000000000000000000008152600401611de190613c4c565b60405180910390fd5b83600a811115611dfd57611dfc61409a565b5b8581600a811115611e1157611e1061409a565b5b60108281548110611e2557611e246140c9565b5b90600052602060002090602091828204019190069054906101000a900460ff16600a811115611e5757611e5661409a565b5b14611e97576040517f08c379a0000000000000000000000000000000000000000000000000000000008152600401611e8e90613bac565b60405180910390fd5b863373ffffffffffffffffffffffffffffffffffffffff1660118281548110611ec357611ec26140c9565b5b9060005260206000200160009054906101000a900473ffffffffffffffffffffffffffffffffffffffff1673ffffffffffffffffffffffffffffffffffffffff1614611f44576040517f08c379a0000000000000000000000000000000000000000000000000000000008152600401611f3b90613c0c565b60405180910390fd5b876003600a811115611f5957611f5861409a565b5b60108281548110611f6d57611f6c6140c9565b5b90600052602060002090602091828204019190069054906101000a900460ff16600a811115611f9f57611f9e61409a565b5b148061200257506005600a811115611fba57611fb961409a565b5b60108281548110611fce57611fcd6140c9565b5b90600052602060002090602091828204019190069054906101000a900460ff16600a81111561200057611fff61409a565b5b145b8061206457506007600a81111561201c5761201b61409a565b5b601082815481106120305761202f6140c9565b5b90600052602060002090602091828204019190069054906101000a900460ff16600a8111156120625761206161409a565b5b145b6120a3576040517f08c379a000000000000000000000000000000000000000000000000000000000815260040161209a90613bac565b60405180910390fd5b6000601260008b815260200190815260200160002060003373ffffffffffffffffffffffffffffffffffffffff1673ffffffffffffffffffffffffffffffffffffffff168152602001908152602001600020549050600060026001836121099190613d9a565b6121139190613fda565b905060068b81548110612129576121286140c9565b5b906000526020600020018181548110612145576121446140c9565b5b9060005260206000200160009054906101000a900473ffffffffffffffffffffffffffffffffffffffff1660118c81548110612184576121836140c9565b5b9060005260206000200160006101000a81548173ffffffffffffffffffffffffffffffffffffffff021916908373ffffffffffffffffffffffffffffffffffffffff16021790555060008214156121dc5750506121ec565b6121e98b8b8b8b85612b7d565b50505b505050505050505050565b6121ff612aa3565b73ffffffffffffffffffffffffffffffffffffffff1661221d611cf3565b73ffffffffffffffffffffffffffffffffffffffff1614612273576040517f08c379a000000000000000000000000000000000000000000000000000000000815260040161226a90613c2c565b60405180910390fd5b8173ffffffffffffffffffffffffffffffffffffffff166108fc829081150290604051600060405180830381858888f193505050501580156122b9573d6000803e3d6000fd5b505050565b808060088054905011612306576040517f08c379a00000000000000000000000000000000000000000000000000000000081526004016122fd90613c4c565b60405180910390fd5b600a8281600a81111561231c5761231b61409a565b5b601082815481106123305761232f6140c9565b5b90600052602060002090602091828204019190069054906101000a900460ff16600a8111156123625761236161409a565b5b146123a2576040517f08c379a000000000000000000000000000000000000000000000000000000000815260040161239990613bac565b60405180910390fd5b833373ffffffffffffffffffffffffffffffffffffffff16601182815481106123ce576123cd6140c9565b5b9060005260206000200160009054906101000a900473ffffffffffffffffffffffffffffffffffffffff1673ffffffffffffffffffffffffffffffffffffffff161461244f576040517f08c379a000000000000000000000000000000000000000000000000000000000815260040161244690613c0c565b60405180910390fd5b6000805b60028110156124b557600e87815481106124705761246f6140c9565b5b90600052602060002001818154811061248c5761248b6140c9565b5b9060005260206000200154826124a29190613d9a565b9150806124ae90613f91565b9050612453565b503373ffffffffffffffffffffffffffffffffffffffff166108fc829081150290604051600060405180830381858888f193505050501580156124fc573d6000803e3d6000fd5b50505050505050565b60006012600086815260200190815260200160002060003373ffffffffffffffffffffffffffffffffffffffff1673ffffffffffffffffffffffffffffffffffffffff1681526020019081526020016000205490506000600260018361256b9190613d9a565b6125759190613fda565b90506006868154811061258b5761258a6140c9565b5b9060005260206000200181815481106125a7576125a66140c9565b5b9060005260206000200160009054906101000a900473ffffffffffffffffffffffffffffffffffffffff16601187815481106125e6576125e56140c9565b5b9060005260206000200160006101000a81548173ffffffffffffffffffffffffffffffffffffffff021916908373ffffffffffffffffffffffffffffffffffffffff16021790555061263661354a565b60005b60028110156127525773__PokerUtils____________________________631a4f18fa60078a815481106126705761266f6140c9565b5b90600052602060002001868154811061268c5761268b6140c9565b5b9060005260206000200183815481106126a8576126a76140c9565b5b9060005260206000200154896004546040518463ffffffff1660e01b81526004016126d593929190613d07565b60206040518083038186803b1580156126ed57600080fd5b505af4158015612701573d6000803e3d6000fd5b505050506040513d601f19601f82011682018060405250810190612725919061379b565b828260028110612738576127376140c9565b5b6020020181815250508061274b90613f91565b9050612639565b5061275b613453565b60005b60058110156127cf57600c898154811061277b5761277a6140c9565b5b906000526020600020018181548110612797576127966140c9565b5b90600052602060002001548282600581106127b5576127b46140c9565b5b602002018181525050806127c890613f91565b905061275e565b506127db868284612dbf565b6127e457600080fd5b6127ee8686612eba565b6127f757600080fd5b60006128038787613156565b9050600b8981548110612819576128186140c9565b5b90600052602060002001548111156128ac5780600b8a815481106128405761283f6140c9565b5b906000526020600020018190555033600a8a81548110612863576128626140c9565b5b9060005260206000200160006101000a81548173ffffffffffffffffffffffffffffffffffffffff021916908373ffffffffffffffffffffffffffffffffffffffff1602179055505b60008414156129a057600a60108a815481106128cb576128ca6140c9565b5b90600052602060002090602091828204019190066101000a81548160ff0219169083600a8111156128ff576128fe61409a565b5b0217905550600a8981548110612918576129176140c9565b5b9060005260206000200160009054906101000a900473ffffffffffffffffffffffffffffffffffffffff1660118a81548110612957576129566140c9565b5b9060005260206000200160006101000a81548173ffffffffffffffffffffffffffffffffffffffff021916908373ffffffffffffffffffffffffffffffffffffffff1602179055505b505050505050505050565b6129b3612aa3565b73ffffffffffffffffffffffffffffffffffffffff166129d1611cf3565b73ffffffffffffffffffffffffffffffffffffffff1614612a27576040517f08c379a0000000000000000000000000000000000000000000000000000000008152600401612a1e90613c2c565b60405180910390fd5b600073ffffffffffffffffffffffffffffffffffffffff168173ffffffffffffffffffffffffffffffffffffffff161415612a97576040517f08c379a0000000000000000000000000000000000000000000000000000000008152600401612a8e90613b8c565b60405180910390fd5b612aa081612aab565b50565b600033905090565b60008060009054906101000a900473ffffffffffffffffffffffffffffffffffffffff169050816000806101000a81548173ffffffffffffffffffffffffffffffffffffffff021916908373ffffffffffffffffffffffffffffffffffffffff1602179055508173ffffffffffffffffffffffffffffffffffffffff168173ffffffffffffffffffffffffffffffffffffffff167f8be0079c531659141344cd1fd0a4f28419497f9722a3daafe3b4186f6b6457e060405160405180910390a35050565b600081600001549050919050565b600060108681548110612b9357612b926140c9565b5b90600052602060002090602091828204019190069054906101000a900460ff16905060006001600083600a811115612bce57612bcd61409a565b5b600a811115612be057612bdf61409a565b5b815260200190815260200160002060009054906101000a900460ff1660ff16905060006002600084600a811115612c1a57612c1961409a565b5b600a811115612c2c57612c2b61409a565b5b815260200190815260200160002060009054906101000a900460ff1660ff1690506000600c8981548110612c6357612c626140c9565b5b9060005260206000200190506000600d8a81548110612c8557612c846140c9565b5b90600052602060002001905060005b84811015612d3c57600081600186612cac9190613ee3565b612cb69190613ee3565b9050888260038110612ccb57612cca6140c9565b5b6020020151848281548110612ce357612ce26140c9565b5b9060005260206000200181905550898260038110612d0457612d036140c9565b5b6020020151838281548110612d1c57612d1b6140c9565b5b90600052602060002001819055505080612d3590613f91565b9050612c94565b506000861415612db357600189612d539190613d9a565b600a811115612d6557612d6461409a565b5b60108b81548110612d7957612d786140c9565b5b90600052602060002090602091828204019190066101000a81548160ff0219169083600a811115612dad57612dac61409a565b5b02179055505b50505050505050505050565b600080600090505b6005811015612ead576000603460ff1686612de29190613fda565b9050603460ff1686612df49190613e27565b95506000805b6005811015612e3f57868160058110612e1657612e156140c9565b5b60200201518360ff161415612e2e5760019150612e3f565b80612e3890613f91565b9050612dfa565b5060005b6002811015612e8857858160028110612e5f57612e5e6140c9565b5b60200201518360ff161415612e775760019150612e88565b80612e8190613f91565b9050612e43565b5080612e9a5760009350505050612eb3565b505080612ea690613f91565b9050612dc7565b50600190505b9392505050565b6000808260ff166009811115612ed357612ed261409a565b5b905060006009811115612ee957612ee861409a565b5b816009811115612efc57612efb61409a565b5b1415612f0c576001915050613150565b60016009811115612f2057612f1f61409a565b5b816009811115612f3357612f3261409a565b5b1415612f4e57612f46846002600061317e565b915050613150565b60026009811115612f6257612f6161409a565b5b816009811115612f7557612f7461409a565b5b1415612fa457612f88846002600061317e565b8015612f9c5750612f9b8460028061317e565b5b915050613150565b60036009811115612fb857612fb761409a565b5b816009811115612fcb57612fca61409a565b5b1415612fe657612fde846003600061317e565b915050613150565b60046009811115612ffa57612ff961409a565b5b81600981111561300d5761300c61409a565b5b14156130245761301c84613243565b915050613150565b600560098111156130385761303761409a565b5b81600981111561304b5761304a61409a565b5b14156130625761305a846132df565b915050613150565b600660098111156130765761307561409a565b5b8160098111156130895761308861409a565b5b14156130b95761309c846003600061317e565b80156130b157506130b0846002600361317e565b5b915050613150565b600760098111156130cd576130cc61409a565b5b8160098111156130e0576130df61409a565b5b14156130fb576130f3846004600061317e565b915050613150565b6008600981111561310f5761310e61409a565b5b8160098111156131225761312161409a565b5b141561314a5761313184613243565b80156131425750613141846132df565b5b915050613150565b60009150505b92915050565b6000828260ff166316a9740061316c9190613e89565b6131769190613d9a565b905092915050565b6000806034905060005b6005811015613235576000603460ff16876131a39190613fda565b905060006004826131b49190613e58565b9050603460ff16886131c69190613e27565b97508560ff1683101580156131e8575086866131e29190613df0565b60ff1683105b1561322157603460ff168460ff161415613206578093505050613224565b8060ff168460ff161461322057600094505050505061323c565b5b50505b8061322e90613f91565b9050613188565b5060019150505b9392505050565b6000806034905060005b60058110156132d3576000603460ff16856132689190613fda565b905060006004826132799190613e58565b9050603460ff168661328b9190613e27565b955060008311156132bd576001846132a39190613df0565b60ff168160ff16146132bc5760009450505050506132da565b5b8093505050806132cc90613f91565b905061324d565b5060019150505b919050565b6000806034905060005b6005811015613370576000603460ff16856133049190613fda565b90506000600482613315919061400b565b9050603460ff16866133279190613e27565b9550603460ff168460ff16141561334257809350505061335f565b8060ff168460ff161461335c576000945050505050613377565b50505b8061336990613f91565b90506132e9565b5060019150505b919050565b8280548282559060005260206000209081019282156133f5579160200282015b828111156133f45782518260006101000a81548173ffffffffffffffffffffffffffffffffffffffff021916908373ffffffffffffffffffffffffffffffffffffffff1602179055509160200191906001019061339c565b5b509050613402919061356c565b5090565b828054828255906000526020600020908101928215613442579160200282015b82811115613441578251825591602001919060010190613426565b5b50905061344f919061356c565b5090565b6040518060a00160405280600590602082028036833780820191505090505090565b8280548282559060005260206000209081019282156134b1579160200282015b828111156134b0578251825591602001919060010190613495565b5b5090506134be919061356c565b5090565b60405180604001604052806002905b6134d961354a565b8152602001906001900390816134d15790505090565b828054828255906000526020600020908101928215613539579160200282015b8281111561353857825182906002613528929190613589565b509160200191906001019061350f565b5b50905061354691906135d6565b5090565b6040518060400160405280600290602082028036833780820191505090505090565b5b8082111561358557600081600090555060010161356d565b5090565b8280548282559060005260206000209081019282156135c5579160200282015b828111156135c45782518255916020019190600101906135a9565b5b5090506135d2919061356c565b5090565b5b808211156135f657600081816135ed91906135fa565b506001016135d7565b5090565b5080546000825590600052602060002090810190613618919061356c565b50565b600061362e61362984613d63565b613d3e565b905080828560208602820111156136485761364761412c565b5b60005b85811015613678578161365e88826136c2565b84526020840193506020830192505060018101905061364b565b5050509392505050565b600081359050613691816144b2565b92915050565b600082601f8301126136ac576136ab614127565b5b60036136b984828561361b565b91505092915050565b6000813590506136d1816144c9565b92915050565b6000815190506136e6816144c9565b92915050565b6000813590506136fb816144e0565b92915050565b60006020828403121561371757613716614131565b5b600061372584828501613682565b91505092915050565b6000806040838503121561374557613744614131565b5b600061375385828601613682565b9250506020613764858286016136c2565b9150509250929050565b60006020828403121561378457613783614131565b5b6000613792848285016136c2565b91505092915050565b6000602082840312156137b1576137b0614131565b5b60006137bf848285016136d7565b91505092915050565b60008060008061010085870312156137e3576137e2614131565b5b60006137f1878288016136c2565b9450506020613802878288016136c2565b935050604061381387828801613697565b92505060a061382487828801613697565b91505092959194509250565b60008060006060848603121561384957613848614131565b5b6000613857868287016136c2565b9350506020613868868287016136c2565b9250506040613879868287016136c2565b9150509250925092565b6000806000806080858703121561389d5761389c614131565b5b60006138ab878288016136c2565b94505060206138bc878288016136c2565b93505060406138cd878288016136c2565b92505060606138de878288016136ec565b91505092959194509250565b60008060006060848603121561390357613902614131565b5b6000613911868287016136c2565b9350506020613922868287016136ec565b9250506040613933868287016136ec565b9150509250925092565b61394681613f17565b82525050565b6000613959601f83613d89565b915061396482614147565b602082019050919050565b600061397c603083613d89565b915061398782614170565b604082019050919050565b600061399f602683613d89565b91506139aa826141bf565b604082019050919050565b60006139c2602283613d89565b91506139cd8261420e565b604082019050919050565b60006139e5604b83613d89565b91506139f08261425d565b606082019050919050565b6000613a08601c83613d89565b9150613a13826142d2565b602082019050919050565b6000613a2b602783613d89565b9150613a36826142fb565b604082019050919050565b6000613a4e602083613d89565b9150613a598261434a565b602082019050919050565b6000613a71602283613d89565b9150613a7c82614373565b604082019050919050565b6000613a94602683613d89565b9150613a9f826143c2565b604082019050919050565b6000613ab7601e83613d89565b9150613ac282614411565b602082019050919050565b6000613ada602c83613d89565b9150613ae58261443a565b604082019050919050565b6000613afd601883613d89565b9150613b0882614489565b602082019050919050565b613b1c81613f49565b82525050565b613b2b81613f49565b82525050565b6000602082019050613b46600083018461393d565b92915050565b60006020820190508181036000830152613b658161394c565b9050919050565b60006020820190508181036000830152613b858161396f565b9050919050565b60006020820190508181036000830152613ba581613992565b9050919050565b60006020820190508181036000830152613bc5816139b5565b9050919050565b60006020820190508181036000830152613be5816139d8565b9050919050565b60006020820190508181036000830152613c05816139fb565b9050919050565b60006020820190508181036000830152613c2581613a1e565b9050919050565b60006020820190508181036000830152613c4581613a41565b9050919050565b60006020820190508181036000830152613c6581613a64565b9050919050565b60006020820190508181036000830152613c8581613a87565b9050919050565b60006020820190508181036000830152613ca581613aaa565b9050919050565b60006020820190508181036000830152613cc581613acd565b9050919050565b60006020820190508181036000830152613ce581613af0565b9050919050565b6000602082019050613d016000830184613b13565b92915050565b6000606082019050613d1c6000830186613b22565b613d296020830185613b22565b613d366040830184613b22565b949350505050565b6000613d48613d59565b9050613d548282613f60565b919050565b6000604051905090565b600067ffffffffffffffff821115613d7e57613d7d6140f8565b5b602082029050919050565b600082825260208201905092915050565b6000613da582613f49565b9150613db083613f49565b9250827fffffffffffffffffffffffffffffffffffffffffffffffffffffffffffffffff03821115613de557613de461403c565b5b828201905092915050565b6000613dfb82613f53565b9150613e0683613f53565b92508260ff03821115613e1c57613e1b61403c565b5b828201905092915050565b6000613e3282613f49565b9150613e3d83613f49565b925082613e4d57613e4c61406b565b5b828204905092915050565b6000613e6382613f53565b9150613e6e83613f53565b925082613e7e57613e7d61406b565b5b828204905092915050565b6000613e9482613f49565b9150613e9f83613f49565b9250817fffffffffffffffffffffffffffffffffffffffffffffffffffffffffffffffff0483118215151615613ed857613ed761403c565b5b828202905092915050565b6000613eee82613f49565b9150613ef983613f49565b925082821015613f0c57613f0b61403c565b5b828203905092915050565b6000613f2282613f29565b9050919050565b600073ffffffffffffffffffffffffffffffffffffffff82169050919050565b6000819050919050565b600060ff82169050919050565b613f6982614136565b810181811067ffffffffffffffff82111715613f8857613f876140f8565b5b80604052505050565b6000613f9c82613f49565b91507fffffffffffffffffffffffffffffffffffffffffffffffffffffffffffffffff821415613fcf57613fce61403c565b5b600182019050919050565b6000613fe582613f49565b9150613ff083613f49565b92508261400057613fff61406b565b5b828206905092915050565b600061401682613f53565b915061402183613f53565b9250826140315761403061406b565b5b828206905092915050565b7f4e487b7100000000000000000000000000000000000000000000000000000000600052601160045260246000fd5b7f4e487b7100000000000000000000000000000000000000000000000000000000600052601260045260246000fd5b7f4e487b7100000000000000000000000000000000000000000000000000000000600052602160045260246000fd5b7f4e487b7100000000000000000000000000000000000000000000000000000000600052603260045260246000fd5b7f4e487b7100000000000000000000000000000000000000000000000000000000600052604160045260246000fd5b600080fd5b600080fd5b600080fd5b6000601f19601f8301169050919050565b7f756e6578706563746564206e756d626572206f66206361726448617368657300600082015250565b7f43616e277420646f20636865636b2c20616374696f6e2073686f756c6420626560008201527f2063616c6c2f72616973652f666f6c6400000000000000000000000000000000602082015250565b7f4f776e61626c653a206e6577206f776e657220697320746865207a65726f206160008201527f6464726573730000000000000000000000000000000000000000000000000000602082015250565b7f616374696f6e20726571756972657320616e6f746865722067616d652073746160008201527f7465000000000000000000000000000000000000000000000000000000000000602082015250565b7f526572616973652073686f756c64206265206174206c6561737420746865207360008201527f616d652061732073756d206f662070726576696f75732072616973657320617460208201527f207468697320726f756e64000000000000000000000000000000000000000000604082015250565b7f6e656564206d6f7265206d6f6e657920666f7220626967426c696e6400000000600082015250565b7f67616d65206578706563747320616374696f6e2066726f6d20616e6f7468657260008201527f20706c6179657200000000000000000000000000000000000000000000000000602082015250565b7f4f776e61626c653a2063616c6c6572206973206e6f7420746865206f776e6572600082015250565b7f67616d6520776974682070726f76696465642069642073686f756c642065786960008201527f7374000000000000000000000000000000000000000000000000000000000000602082015250565b7f6d73672e73656e6465722068617320616c6561726479206a6f696e656420746860008201527f652067616d650000000000000000000000000000000000000000000000000000602082015250565b7f6e656564206d6f7265206d6f6e657920666f7220736d616c6c426c696e640000600082015250565b7f6d73672e76616c75652073686f756c64206265206d6f7265206f72206571756160008201527f6c207468616e2070726963650000000000000000000000000000000000000000602082015250565b7f67616d652068617320616c726561647920737461727465640000000000000000600082015250565b6144bb81613f17565b81146144c657600080fd5b50565b6144d281613f49565b81146144dd57600080fd5b50565b6144e981613f53565b81146144f457600080fd5b5056fea26469706673582212208cd7a797a08440d235b8bf78d939be05d3be51e1e6f5cbdd67c862afa2299e7564736f6c63430008070033",
  "immutableReferences": {},
  "source": "// SPDX-License-Identifier: GPL-3.0\npragma solidity >=0.7.0 <0.9.0;\n\nimport \"@openzeppelin/contracts/access/Ownable.sol\";\nimport \"@openzeppelin/contracts/utils/Counters.sol\";\nimport './PokerUtils.sol';\n\ncontract PokerRoom is Ownable {\n    uint private constant N_PLAYERS = 2;\n    uint private constant N_PRIVATE_CARDS = 2;\n    uint private constant N_PUBLIC_CARDS = 5;\n\n    uint private constant DEALER_POSITION = 0;\n    uint private constant SMALL_BLIND_POSITION = 1;\n    uint private constant BIG_BLIND_POSITION = 2;\n\n    enum GameState {\n        WAITING,\n        DEALING,\n        PREFLOP,\n        OPEN_FLOP,\n        FLOP,\n        OPEN_TURN,\n        TURN,\n        OPEN_RIVER,\n        RIVER,\n        SHOWDOWN,\n        WINNER_CHOOSEN\n    }\n\n    enum ActionType {\n        FOLD,\n        CHECK,\n        CALL,\n        RAISE\n    }\n\n    mapping(GameState => uint8) NEED_CARDS_AT_STATE;\n    mapping(GameState => uint8) OPEN_CARDS_AT_STATE;\n\n    using Counters for Counters.Counter;\n    Counters.Counter private _gameCount;\n\n    uint256 private cipher_modulo;\n    uint256 private gameFee;\n    address[][] private players;\n    uint256[][][] private cardHashes;\n    uint256[] private smallBlinds;\n    uint256[] private maxPot;\n    address[] private winner;\n    uint256[] private winnerRank;\n    uint256[][] private publicCards;\n    uint256[][] private publicCardsHashes;\n    uint256[][] private pots;\n    uint[] private roundNumbers;\n    GameState[] private gameState;\n    address[] private actionExpectedFrom;\n    mapping(uint => mapping(address => uint)) private player2position;\n\n\n    constructor(uint256 gameFee_, uint256 cipher_modulo_) {\n        gameFee = gameFee_;\n        cipher_modulo = cipher_modulo_;\n        OPEN_CARDS_AT_STATE[GameState.OPEN_FLOP] = 3;\n        OPEN_CARDS_AT_STATE[GameState.OPEN_TURN] = 4;\n        OPEN_CARDS_AT_STATE[GameState.OPEN_RIVER] = 5;\n\n        NEED_CARDS_AT_STATE[GameState.OPEN_FLOP] = 3;\n        NEED_CARDS_AT_STATE[GameState.OPEN_TURN] = 1;\n        NEED_CARDS_AT_STATE[GameState.OPEN_RIVER] = 1;\n    }\n\n    modifier costs(uint price) {\n        require(msg.value >= gameFee, \"msg.value should be more or equal than price\");\n        _;\n    }\n\n    modifier gameIsExist(uint256 gameId) {\n        require(smallBlinds.length > gameId, \"game with provided id should exist\");\n        _;\n    }\n\n    modifier gameStateEquals(GameState state, uint256 gameId) {\n        require(gameState[gameId] == state, \"action requires another game state\");\n        _;\n    }\n\n    modifier gameStateIsOpenCards(uint256 gameId) {\n        require(gameState[gameId] == GameState.OPEN_FLOP\n            || gameState[gameId] == GameState.OPEN_TURN\n            || gameState[gameId] == GameState.OPEN_RIVER\n            , \"action requires another game state\");\n        _;\n    }\n\n    modifier gameStateIsTurn(uint256 gameId) {\n        require(gameState[gameId] == GameState.PREFLOP\n            || gameState[gameId] == GameState.FLOP\n            || gameState[gameId] == GameState.TURN\n            || gameState[gameId] == GameState.RIVER\n            , \"action requires another game state\");\n        _;\n    }\n\n    modifier actionExpectedFromPlayer(uint256 gameId) {\n        require(actionExpectedFrom[gameId] == msg.sender, \"game expects action from another player\");\n        _;\n    }\n\n\n    modifier canJoinGame(uint256 gameId) {\n        require(gameState[gameId] == GameState.WAITING, \"game has already started\");\n        for (uint i = 0; i < players[gameId].length; ++i) {\n            require(players[gameId][i] != msg.sender, \"msg.sender has aleardy joined the game\");\n        }\n        uint position = players[gameId].length;\n        if (position == SMALL_BLIND_POSITION % N_PLAYERS) {\n            require(msg.value >= gameFee + smallBlinds[gameId], \"need more money for smallBlind\");\n        }\n        if (position == BIG_BLIND_POSITION % N_PLAYERS) {\n            require(msg.value >= gameFee + 2 * smallBlinds[gameId], \"need more money for bigBlind\");\n        }\n        _;\n    }\n\n    function setGameFee(uint256 gameFee_) public onlyOwner {\n        gameFee = gameFee_;\n    }\n\n    function setCipherModulo(uint256 cipher_modulo_) public onlyOwner {\n        cipher_modulo = cipher_modulo_;\n    }\n\n    function widthdraw(address _address, uint256 amount) public payable onlyOwner {\n        payable(_address).transfer(amount);\n    }\n\n    function createGame() public payable costs(gameFee) returns(uint256) {\n        uint256 newGameId = _gameCount.current();\n        uint256 bigBlind = msg.value - gameFee;\n        uint256 smallBlind = bigBlind / 2;\n        smallBlinds.push(smallBlind);\n        maxPot.push(0);\n        winner.push(address(0));\n        actionExpectedFrom.push(address(0));\n        winnerRank.push(0);\n        address[] memory newPlayers;\n        players.push(newPlayers);\n\n        uint256[] memory newPots;\n        pots.push(newPots);\n\n        uint256[N_PUBLIC_CARDS] memory newCards;\n        publicCards.push(newCards);\n\n        uint256[N_PUBLIC_CARDS] memory newCardsHashes;\n        publicCardsHashes.push(newCardsHashes);\n\n        uint256[N_PLAYERS][N_PRIVATE_CARDS] memory hashes;\n        cardHashes.push(hashes);\n        gameState.push(GameState.WAITING);\n        enterGame(newGameId);\n        return newGameId;\n    }\n\n    function enterGame(uint256 gameId) public payable\n            gameIsExist(gameId)\n            gameStateEquals(GameState.WAITING, gameId)\n            canJoinGame(gameId) {\n        uint position = players[gameId].length;\n        player2position[gameId][msg.sender] = position;\n        players[gameId].push(msg.sender);\n        uint256 pot = 0;\n        if (position == SMALL_BLIND_POSITION) {\n            pot = smallBlinds[gameId];\n        }\n        if (position == BIG_BLIND_POSITION) {\n            pot = 2 * smallBlinds[gameId];\n        }\n        if (pot > maxPot[gameId]) {\n            maxPot[gameId] = pot;\n        }\n        pots[gameId].push(pot);\n\n        if (players[gameId].length == N_PLAYERS) {\n            gameState[gameId] = GameState.DEALING;\n            actionExpectedFrom[gameId] = players[gameId][DEALER_POSITION];\n        }\n    }\n\n    // DEALING:\n    // based on http://people.csail.mit.edu/rivest/ShamirRivestAdleman-MentalPoker.pdf\n    // first and second players have P1 and P2 reversable hashes based on discrete logarithms over same prime modulo\n    // with properties P1(P2(x)) = P2(P1(x)) and P^(-1) (P(x)) = x\n    // so first player creates permutation of hashes P_1 = P1(card1) ... P_N = P1(cardN),\n    // second player chooses indicies j_1, j_2 and provides P2(P_j_2), P2(P_j_2)\n    // after that first player provides their P1^(-1) P2(P_j_1), P1^(-1) P2(P_j_2) - cards for second player\n    // also second player chooses two another indicies and provide this hashes P_i_1, P_i_2 - cards for first player\n    function provideCardHashesForDealing(uint256 gameId, uint256 card1Hash, uint256 card2Hash) public\n            gameIsExist(gameId)\n            gameStateEquals(GameState.DEALING, gameId)\n            actionExpectedFromPlayer(gameId) {\n        uint nextPosition = (player2position[gameId][msg.sender] + 1) % N_PLAYERS;\n        uint256[] memory nextPlayerHashes = new uint256[](N_PRIVATE_CARDS);\n        nextPlayerHashes[0] = card1Hash;\n        nextPlayerHashes[1] = card2Hash;\n        require(cardHashes[gameId][nextPosition].length == N_PRIVATE_CARDS, \"unexpected number of cardHashes\");\n        for (uint i = 0;i < N_PRIVATE_CARDS; ++i) {\n            require(cardHashes[gameId][nextPosition][i] == 0);\n            cardHashes[gameId][nextPosition][i] = nextPlayerHashes[i];\n        }\n        actionExpectedFrom[gameId] = players[gameId][nextPosition];\n\n        if (nextPosition == DEALER_POSITION) {\n            gameState[gameId] = GameState.PREFLOP;\n        }\n    }\n\n    // PREFLOP\n    // FLOP\n    // TURN\n    // RIVER\n    function makeTurn(uint256 gameId, uint8 gameStateCode, uint8 actionTypeCode) public payable\n            gameIsExist(gameId)\n            gameStateEquals(GameState(gameStateCode), gameId)\n            actionExpectedFromPlayer(gameId)\n            gameStateIsTurn(gameId) {\n        uint position = player2position[gameId][msg.sender];\n        uint nextPosition = (position + 1) % N_PLAYERS;\n        actionExpectedFrom[gameId] = players[gameId][nextPosition];\n\n        ActionType action = ActionType(actionTypeCode);\n\n        if (action == ActionType.FOLD) {\n            gameState[gameId] = GameState.WINNER_CHOOSEN;\n            actionExpectedFrom[gameId] =  players[gameId][nextPosition];\n            return;\n        }\n\n        if (action == ActionType.RAISE) {\n            require(msg.value + 2 * pots[gameId][position] >= 2 * maxPot[gameId],\n                \"Reraise should be at least the same as sum of previous raises at this round\");\n            maxPot[gameId] = msg.value + pots[gameId][position];\n            return;\n        }\n\n        if (action == ActionType.CALL) {\n            require(maxPot[gameId] <= pots[gameId][position] + msg.value);\n            pots[gameId][position] = maxPot[gameId];\n        }\n\n        if (action == ActionType.CHECK) {\n            require(maxPot[gameId] == pots[gameId][position],\n                \"Can't do check, action should be call/raise/fold\");\n        }\n\n        if (nextPosition == DEALER_POSITION && maxPot[gameId] == pots[gameId][nextPosition]) {\n            gameState[gameId] = GameState(gameStateCode + 1);\n        }\n    }\n\n    // OPEN_FLOP\n    // OPEN_TURN\n    // OPEN_RIVER\n    // Basic action - second player choose some hashes and supply them signed by first player,\n    // also first player supply values of the hashes\n    function openNextCards(\n        uint256 gameId,\n        uint256 gameStateCode,\n        uint256[3] memory newCardHashes,\n        uint256[3] memory newCards) public\n            gameIsExist(gameId)\n            gameStateEquals(GameState(gameStateCode), gameId)\n            actionExpectedFromPlayer(gameId)\n            gameStateIsOpenCards(gameId) {\n        uint position = player2position[gameId][msg.sender];\n        uint nextPosition = (position + 1) % N_PLAYERS;\n        actionExpectedFrom[gameId] = players[gameId][nextPosition];\n\n        if (position == DEALER_POSITION) {\n            return;\n        }\n\n        updateCardInfo(gameId, gameStateCode, newCardHashes, newCards, nextPosition);\n    }\n\n    function updateCardInfo(\n        uint256 gameId,\n        uint256 gameStateCode,\n        uint256[3] memory newCardHashes,\n        uint256[3] memory newCards,\n        uint nextPosition\n    ) private {\n        GameState state = gameState[gameId];\n        uint needCards = NEED_CARDS_AT_STATE[state];\n        uint offset = OPEN_CARDS_AT_STATE[state];\n        uint256[] storage currentPublicCards = publicCards[gameId];\n        uint256[] storage currentPublicCardsHashes = publicCardsHashes[gameId];\n        for(uint i = 0;i < needCards; ++i) {\n            uint pos = offset - 1 - i;\n            currentPublicCards[pos] = newCards[i];\n            currentPublicCardsHashes[pos] = newCardHashes[i];\n        }\n\n        if (nextPosition == DEALER_POSITION) {\n            gameState[gameId] = GameState(gameStateCode + 1);\n        }\n    }\n\n    // HANDSUP\n    function submitKeys(uint256 gameId, uint256 privatePower, uint256 claimedHandCode, uint8 claimedCombination) public {\n        uint position = player2position[gameId][msg.sender];\n        uint nextPosition = (position + 1) % N_PLAYERS;\n        actionExpectedFrom[gameId] = players[gameId][nextPosition];\n\n        uint256[N_PRIVATE_CARDS] memory privateCards;\n        for(uint i = 0; i < N_PRIVATE_CARDS; ++i) {\n            privateCards[i] = PokerUtils.decipherCard(cardHashes[gameId][position][i], privatePower, cipher_modulo);\n        }\n        uint256[N_PUBLIC_CARDS] memory gamePublicCards;\n        for (uint i = 0;i < N_PUBLIC_CARDS; ++i) {\n            gamePublicCards[i] = publicCards[gameId][i];\n        }\n        require(PokerUtils.checkClaimedHandWithPrivate(claimedHandCode, gamePublicCards, privateCards));\n        require(PokerUtils.checkClaimedCombination(claimedHandCode, claimedCombination));\n        uint256 currentRank = PokerUtils.calcHandRank(claimedHandCode, claimedCombination);\n        if (currentRank > winnerRank[gameId]) {\n            winnerRank[gameId] = currentRank;\n            winner[gameId] = msg.sender;\n        }\n        if (nextPosition == DEALER_POSITION) {\n            gameState[gameId] = GameState.WINNER_CHOOSEN;\n            actionExpectedFrom[gameId] = winner[gameId];\n        }\n    }\n\n    // WINNER_CHOOSEN\n    function claimWin(uint256 gameId) public payable\n            gameIsExist(gameId)\n            gameStateEquals(GameState.WINNER_CHOOSEN, gameId)\n            actionExpectedFromPlayer(gameId) {\n        uint256 totalPot = 0;\n        for (uint i = 0;i < N_PLAYERS; ++i) {\n            totalPot += pots[gameId][i];\n        }\n        payable(msg.sender).transfer(totalPot);\n    }\n}\n\n",
  "sourcePath": "/opt/contracts/PokerRoom.sol",
  "compiler": {
    "name": "solc",
    "version": "0.8.7+commit.e28d00a7.Emscripten.clang"
  },
  "schemaVersion": "3.3.4",
  "updatedAt": "2022-05-02T15:48:02.893Z",
  "devdoc": {
    "kind": "dev",
    "methods": {
      "owner()": {
        "details": "Returns the address of the current owner."
      },
      "renounceOwnership()": {
        "details": "Leaves the contract without owner. It will not be possible to call `onlyOwner` functions anymore. Can only be called by the current owner. NOTE: Renouncing ownership will leave the contract without an owner, thereby removing any functionality that is only available to the owner."
      },
      "transferOwnership(address)": {
        "details": "Transfers ownership of the contract to a new account (`newOwner`). Can only be called by the current owner."
      }
    },
    "version": 1
  },
  "userdoc": {
    "kind": "user",
    "methods": {},
    "version": 1
  }
}