{
  "contractName": "PokerUtils",
  "abi": [
    {
      "inputs": [
        {
          "internalType": "uint256",
          "name": "cardHash",
          "type": "uint256"
        },
        {
          "internalType": "uint256",
          "name": "privatePower",
          "type": "uint256"
        },
        {
          "internalType": "uint256",
          "name": "primeModulo",
          "type": "uint256"
        }
      ],
      "name": "decipherCard",
      "outputs": [
        {
          "internalType": "uint256",
          "name": "",
          "type": "uint256"
        }
      ],
      "stateMutability": "pure",
      "type": "function"
    },
    {
      "inputs": [
        {
          "internalType": "uint256",
          "name": "x",
          "type": "uint256"
        },
        {
          "internalType": "uint256",
          "name": "power",
          "type": "uint256"
        },
        {
          "internalType": "uint256",
          "name": "modulo",
          "type": "uint256"
        }
      ],
      "name": "powerByModulo",
      "outputs": [
        {
          "internalType": "uint256",
          "name": "",
          "type": "uint256"
        }
      ],
      "stateMutability": "pure",
      "type": "function"
    }
  ],
  "bytecode": "0x6104de610053600b82828239805160001a607314610046577f4e487b7100000000000000000000000000000000000000000000000000000000600052600060045260246000fd5b30600052607381538281f3fe73000000000000000000000000000000000000000030146080604052600436106100405760003560e01c80631a4f18fa14610045578063b76748cc14610075575b600080fd5b61005f600480360381019061005a91906101cf565b6100a5565b60405161006c9190610274565b60405180910390f35b61008f600480360381019061008a91906101cf565b61013c565b60405161009c9190610274565b60405180910390f35b600080600090505b60348110156100ee57846100ce6002836100c791906102a0565b868661013c565b14156100dd5780915050610135565b806100e79061038b565b90506100ad565b506000610130576040517f08c379a000000000000000000000000000000000000000000000000000000000815260040161012790610254565b60405180910390fd5b600090505b9392505050565b600080600190505b60008411156101af57600160028561015c91906103d4565b141561017f57848161016e9190610327565b9050828161017c91906103d4565b90505b60028461018c91906102f6565b9350848561019a9190610327565b945082856101a891906103d4565b9450610144565b809150509392505050565b6000813590506101c981610491565b92915050565b6000806000606084860312156101e8576101e7610463565b5b60006101f6868287016101ba565b9350506020610207868287016101ba565b9250506040610218868287016101ba565b9150509250925092565b600061022f601f8361028f565b915061023a82610468565b602082019050919050565b61024e81610381565b82525050565b6000602082019050818103600083015261026d81610222565b9050919050565b60006020820190506102896000830184610245565b92915050565b600082825260208201905092915050565b60006102ab82610381565b91506102b683610381565b9250827fffffffffffffffffffffffffffffffffffffffffffffffffffffffffffffffff038211156102eb576102ea610405565b5b828201905092915050565b600061030182610381565b915061030c83610381565b92508261031c5761031b610434565b5b828204905092915050565b600061033282610381565b915061033d83610381565b9250817fffffffffffffffffffffffffffffffffffffffffffffffffffffffffffffffff048311821515161561037657610375610405565b5b828202905092915050565b6000819050919050565b600061039682610381565b91507fffffffffffffffffffffffffffffffffffffffffffffffffffffffffffffffff8214156103c9576103c8610405565b5b600182019050919050565b60006103df82610381565b91506103ea83610381565b9250826103fa576103f9610434565b5b828206905092915050565b7f4e487b7100000000000000000000000000000000000000000000000000000000600052601160045260246000fd5b7f4e487b7100000000000000000000000000000000000000000000000000000000600052601260045260246000fd5b600080fd5b7f45787065637465642076616c6964206361726420696420617320696e70757400600082015250565b61049a81610381565b81146104a557600080fd5b5056fea2646970667358221220da7c00cd1ded9afd7ded18462659f31e4a19118a82ddfb65f98394ded732bb6564736f6c63430008070033",
  "immutableReferences": {},
  "source": "// SPDX-License-Identifier: GPL-3.0\n\npragma solidity >=0.7.0 <0.9.0;\n\n\n/**\n * @title PokerUtils\n * @dev contains game utils\n */\nlibrary PokerUtils {\n    uint8 private constant nCards = 52;\n\n    uint8 private constant HIGH_CARD = 0;\n\tuint8 private constant ONE_PAIR = 1;\n\tuint8 private constant TWO_PAIR = 2;\n\tuint8 private constant THREE_OF_A_KIND = 3;\n\tuint8 private constant STRAIGHT = 4;\n\tuint8 private constant FLUSH = 5;\n\tuint8 private constant FULL_HOUSE = 6;\n\tuint8 private constant FOUR_OF_A_KIND = 7;\n\tuint8 private constant STRAIGHT_FLUSH = 8;\n\n    enum CombinationType {\n        HIGH_CARD,\n        ONE_PAIR,\n        TWO_PAIR,\n        THREE_OF_A_KIND,\n        STRAIGHT,\n        FLUSH,\n        FULL_HOUSE,\n        FOUR_OF_A_KIND,\n        STRAIGHT_FLUSH\n    }\n\n\tuint256 private constant TOTAL_5_CARD_COMBINATIONS = 52 ** 5;\n\n\tfunction calcHandRank(uint256 hand, uint8 combination) pure internal returns(uint256) {\n        uint256 handRank = 0;\n        for (uint i = 0; i < 5; ++i) {\n            uint8 card = uint8(hand % nCards);\n            uint8 cardId = card / 4;\n            hand = hand / nCards;\n            handRank *= 13;\n            handRank += cardId;\n        }\n\t    return TOTAL_5_CARD_COMBINATIONS * combination + handRank;\n\t}\n\n    function checkNCardsEqual(uint256 hand, uint8 size, uint8 offset) pure internal returns(bool) {\n        uint8 goldenCardId = nCards;\n        for(uint i = 0; i < 5; ++i) {\n            uint8 card = uint8(hand % nCards);\n            uint8 cardId = card / 4;\n            hand = hand / nCards;\n            if (i >= offset && i < offset + size) {\n                if (goldenCardId == nCards) {\n                    goldenCardId = cardId;\n                    continue;\n                }\n                if (goldenCardId != cardId) {\n                    return false;\n                }\n            }\n        }\n        return true;\n    }\n\n    function checkFlush(uint256 hand) pure internal returns(bool) {\n        uint8 goldenType = nCards;\n        for(uint i = 0; i < 5; ++i) {\n            uint8 card = uint8(hand % nCards);\n            uint8 cardType = card % 4;\n            hand = hand / nCards;\n            if (goldenType == nCards) {\n                goldenType = cardType;\n                continue;\n            }\n            if (goldenType != cardType) {\n                return false;\n            }\n        }\n        return true;\n    }\n\n\n    function checkStraight(uint256 hand) pure internal returns(bool) {\n        uint8 lastId = nCards;\n        for(uint i = 0; i < 5; ++i) {\n            uint8 card = uint8(hand % nCards);\n            uint8 cardId = card / 4;\n            hand = hand / nCards;\n            if (i > 0) {\n                if (cardId != lastId + 1) {\n                    return false;\n                }\n            }\n            lastId = cardId;\n        }\n        return true;\n    }\n\n\n    function checkClaimedCombination(uint256 claimedHand, uint8 claimedCombinationCode) internal pure returns(bool) {\n        CombinationType claimedCombination = CombinationType(claimedCombinationCode);\n        if (claimedCombination == CombinationType.HIGH_CARD) {\n            return true;\n        }\n        if (claimedCombination == CombinationType.ONE_PAIR) {\n            return checkNCardsEqual(claimedHand, 2, 0);\n        }\n\n        if (claimedCombination == CombinationType.TWO_PAIR) {\n            return checkNCardsEqual(claimedHand, 2, 0) && checkNCardsEqual(claimedHand, 2, 2);\n        }\n\n        if (claimedCombination == CombinationType.THREE_OF_A_KIND) {\n            return checkNCardsEqual(claimedHand, 3, 0);\n        }\n\n        if (claimedCombination == CombinationType.STRAIGHT) {\n            return checkStraight(claimedHand);\n        }\n\n        if (claimedCombination == CombinationType.FLUSH) {\n            return checkFlush(claimedHand);\n        }\n\n        if (claimedCombination == CombinationType.FULL_HOUSE) {\n            return checkNCardsEqual(claimedHand, 3, 0) && checkNCardsEqual(claimedHand, 2, 3);\n        }\n\n        if (claimedCombination == CombinationType.FOUR_OF_A_KIND) {\n            return checkNCardsEqual(claimedHand, 4, 0);\n        }\n\n        if (claimedCombination == CombinationType.STRAIGHT_FLUSH) {\n            return checkStraight(claimedHand) && checkFlush(claimedHand);\n        }\n        return false;\n    }\n\n    function checkClaimedHand(uint256 hand, uint8[5] memory cardIds) internal pure returns(bool) {\n        for(uint i = 0; i < 5; ++i) {\n            uint8 card = uint8(hand % nCards);\n            hand = hand / nCards;\n            bool foundEq = false;\n            for(uint j = 0;j < 5; ++j) {\n                if (card == cardIds[j]) {\n                    foundEq = true;\n                    break;\n                }\n            }\n            if(!foundEq) {\n                return false;\n            }\n        }\n\n        return true;\n    }\n\n    function checkClaimedHandWithPrivate(uint256 hand, uint256[5] memory cardIds,  uint256[2] memory privateIds) internal pure returns(bool) {\n        for(uint i = 0; i < 5; ++i) {\n            uint8 card = uint8(hand % nCards);\n            hand = hand / nCards;\n            bool foundEq = false;\n            for(uint j = 0;j < 5; ++j) {\n                if (card == cardIds[j]) {\n                    foundEq = true;\n                    break;\n                }\n            }\n            for(uint j = 0;j < 2; ++j) {\n                if (card == privateIds[j]) {\n                    foundEq = true;\n                    break;\n                }\n            }\n            if(!foundEq) {\n                return false;\n            }\n        }\n\n        return true;\n    }\n\n    function decipherCard(uint256 cardHash, uint256 privatePower, uint256 primeModulo) public pure returns(uint256) {\n        for (uint256 cardId = 0; cardId < 52; ++cardId) {\n            if (powerByModulo(cardId + 2, privatePower, primeModulo) == cardHash) {\n                return cardId;\n            }\n        }\n        require(false, \"Expected valid card id as input\");\n        return 0;\n    }\n\n    function powerByModulo(uint256 x, uint256 power, uint256 modulo) public pure returns(uint256) {\n        uint256 result = 1;\n        while (power > 0) {\n            if (power % 2 == 1) {\n                result *= x;\n                result %= modulo;\n            }\n            power /= 2;\n            x *= x;\n            x %= modulo;\n        }\n        return result;\n    }\n}\n",
  "sourcePath": "/opt/contracts/PokerUtils.sol",
  "compiler": {
    "name": "solc",
    "version": "0.8.7+commit.e28d00a7.Emscripten.clang"
  },
  "schemaVersion": "3.3.4",
  "updatedAt": "2022-05-03T11:20:33.834Z",
  "devdoc": {
    "details": "contains game utils",
    "kind": "dev",
    "methods": {},
    "title": "PokerUtils",
    "version": 1
  },
  "userdoc": {
    "kind": "user",
    "methods": {},
    "version": 1
  }
}