{
  "contractName": "PokerRoom",
  "abi": [
    {
      "inputs": [
        {
          "internalType": "uint256",
          "name": "gameFee_",
          "type": "uint256"
        },
        {
          "internalType": "uint256",
          "name": "cipherModulo_",
          "type": "uint256"
        }
      ],
      "stateMutability": "nonpayable",
      "type": "constructor"
    },
    {
      "anonymous": false,
      "inputs": [
        {
          "indexed": true,
          "internalType": "address",
          "name": "previousOwner",
          "type": "address"
        },
        {
          "indexed": true,
          "internalType": "address",
          "name": "newOwner",
          "type": "address"
        }
      ],
      "name": "OwnershipTransferred",
      "type": "event"
    },
    {
      "inputs": [],
      "name": "cipherModulo",
      "outputs": [
        {
          "internalType": "uint256",
          "name": "",
          "type": "uint256"
        }
      ],
      "stateMutability": "view",
      "type": "function"
    },
    {
      "inputs": [],
      "name": "gameFee",
      "outputs": [
        {
          "internalType": "uint256",
          "name": "",
          "type": "uint256"
        }
      ],
      "stateMutability": "view",
      "type": "function"
    },
    {
      "inputs": [],
      "name": "owner",
      "outputs": [
        {
          "internalType": "address",
          "name": "",
          "type": "address"
        }
      ],
      "stateMutability": "view",
      "type": "function"
    },
    {
      "inputs": [],
      "name": "renounceOwnership",
      "outputs": [],
      "stateMutability": "nonpayable",
      "type": "function"
    },
    {
      "inputs": [
        {
          "internalType": "address",
          "name": "newOwner",
          "type": "address"
        }
      ],
      "name": "transferOwnership",
      "outputs": [],
      "stateMutability": "nonpayable",
      "type": "function"
    },
    {
      "inputs": [
        {
          "internalType": "uint256",
          "name": "gameFee_",
          "type": "uint256"
        }
      ],
      "name": "setGameFee",
      "outputs": [],
      "stateMutability": "nonpayable",
      "type": "function"
    },
    {
      "inputs": [
        {
          "internalType": "uint256",
          "name": "cipherModulo_",
          "type": "uint256"
        }
      ],
      "name": "setCipherModulo",
      "outputs": [],
      "stateMutability": "nonpayable",
      "type": "function"
    },
    {
      "inputs": [
        {
          "internalType": "address",
          "name": "_address",
          "type": "address"
        },
        {
          "internalType": "uint256",
          "name": "amount",
          "type": "uint256"
        }
      ],
      "name": "widthdraw",
      "outputs": [],
      "stateMutability": "payable",
      "type": "function"
    },
    {
      "inputs": [],
      "name": "createGame",
      "outputs": [
        {
          "internalType": "uint256",
          "name": "",
          "type": "uint256"
        }
      ],
      "stateMutability": "payable",
      "type": "function"
    },
    {
      "inputs": [
        {
          "internalType": "uint256",
          "name": "gameId",
          "type": "uint256"
        }
      ],
      "name": "enterGame",
      "outputs": [],
      "stateMutability": "payable",
      "type": "function"
    },
    {
      "inputs": [
        {
          "internalType": "uint256",
          "name": "gameId",
          "type": "uint256"
        },
        {
          "internalType": "uint256",
          "name": "card1Hash",
          "type": "uint256"
        },
        {
          "internalType": "uint256",
          "name": "card2Hash",
          "type": "uint256"
        }
      ],
      "name": "provideCardHashesForDealing",
      "outputs": [],
      "stateMutability": "nonpayable",
      "type": "function"
    },
    {
      "inputs": [
        {
          "internalType": "uint256",
          "name": "gameId",
          "type": "uint256"
        },
        {
          "internalType": "uint8",
          "name": "gameStateCode",
          "type": "uint8"
        },
        {
          "internalType": "uint8",
          "name": "actionTypeCode",
          "type": "uint8"
        }
      ],
      "name": "makeTurn",
      "outputs": [],
      "stateMutability": "payable",
      "type": "function"
    },
    {
      "inputs": [
        {
          "internalType": "uint256",
          "name": "gameId",
          "type": "uint256"
        },
        {
          "internalType": "uint256",
          "name": "gameStateCode",
          "type": "uint256"
        },
        {
          "internalType": "uint256[3]",
          "name": "newCardHashes",
          "type": "uint256[3]"
        },
        {
          "internalType": "uint256[3]",
          "name": "newCards",
          "type": "uint256[3]"
        }
      ],
      "name": "openNextCards",
      "outputs": [],
      "stateMutability": "nonpayable",
      "type": "function"
    },
    {
      "inputs": [
        {
          "internalType": "uint256",
          "name": "gameId",
          "type": "uint256"
        },
        {
          "internalType": "uint256",
          "name": "privatePower",
          "type": "uint256"
        },
        {
          "internalType": "uint256",
          "name": "claimedHandCode",
          "type": "uint256"
        },
        {
          "internalType": "uint8",
          "name": "claimedCombination",
          "type": "uint8"
        }
      ],
      "name": "submitKeys",
      "outputs": [],
      "stateMutability": "nonpayable",
      "type": "function"
    },
    {
      "inputs": [
        {
          "internalType": "uint256",
          "name": "gameId",
          "type": "uint256"
        }
      ],
      "name": "claimWin",
      "outputs": [],
      "stateMutability": "payable",
      "type": "function"
    }
  ],
  "bytecode": "0x60806040523480156200001157600080fd5b5060405162004a3e38038062004a3e83398181016040528101906200003791906200035e565b620000576200004b6200027b60201b60201c565b6200028360201b60201c565b81600581905550806004819055506003600260006003600a811115620000825762000081620003af565b5b600a811115620000975762000096620003af565b5b815260200190815260200160002060006101000a81548160ff021916908360ff1602179055506004600260006005600a811115620000da57620000d9620003af565b5b600a811115620000ef57620000ee620003af565b5b815260200190815260200160002060006101000a81548160ff021916908360ff1602179055506005600260006007600a811115620001325762000131620003af565b5b600a811115620001475762000146620003af565b5b815260200190815260200160002060006101000a81548160ff021916908360ff1602179055506003600160006003600a8111156200018a5762000189620003af565b5b600a8111156200019f576200019e620003af565b5b815260200190815260200160002060006101000a81548160ff021916908360ff16021790555060018060006005600a811115620001e157620001e0620003af565b5b600a811115620001f657620001f5620003af565b5b815260200190815260200160002060006101000a81548160ff021916908360ff16021790555060018060006007600a811115620002385762000237620003af565b5b600a8111156200024d576200024c620003af565b5b815260200190815260200160002060006101000a81548160ff021916908360ff1602179055505050620003fd565b600033905090565b60008060009054906101000a900473ffffffffffffffffffffffffffffffffffffffff169050816000806101000a81548173ffffffffffffffffffffffffffffffffffffffff021916908373ffffffffffffffffffffffffffffffffffffffff1602179055508173ffffffffffffffffffffffffffffffffffffffff168173ffffffffffffffffffffffffffffffffffffffff167f8be0079c531659141344cd1fd0a4f28419497f9722a3daafe3b4186f6b6457e060405160405180910390a35050565b6000815190506200035881620003e3565b92915050565b60008060408385031215620003785762000377620003de565b5b6000620003888582860162000347565b92505060206200039b8582860162000347565b9150509250929050565b6000819050919050565b7f4e487b7100000000000000000000000000000000000000000000000000000000600052602160045260246000fd5b600080fd5b620003ee81620003a5565b8114620003fa57600080fd5b50565b614631806200040d6000396000f3fe6080604052600436106100e85760003560e01c80638da5cb5b1161008a578063ea777eec11610059578063ea777eec14610270578063ee0144ab1461029b578063f1fb3233146102b7578063f2fde38b146102e0576100e8565b80638da5cb5b146101d7578063a38bcc7814610202578063a7c3459e1461022b578063c74b197c14610254576100e8565b806343d6582b116100c657806343d6582b1461016a578063715018a6146101865780637255d7291461019d5780637eb7c568146101bb576100e8565b80630aca59c5146100ed57806311332315146101185780632de4399514610141575b600080fd5b3480156100f957600080fd5b50610102610309565b60405161010f9190613df0565b60405180910390f35b34801561012457600080fd5b5061013f600480360381019061013a9190613872565b61030f565b005b34801561014d57600080fd5b5061016860048036038101906101639190613934565b610395565b005b610184600480360381019061017f9190613872565b6108b4565b005b34801561019257600080fd5b5061019b610f9c565b005b6101a5611024565b6040516101b29190613df0565b60405180910390f35b6101d560048036038101906101d091906139ee565b61138a565b005b3480156101e357600080fd5b506101ec611d75565b6040516101f99190613c35565b60405180910390f35b34801561020e57600080fd5b5061022960048036038101906102249190613872565b611d9e565b005b34801561023757600080fd5b50610252600480360381019061024d91906138cc565b611e24565b005b61026e60048036038101906102699190613832565b612279565b005b34801561027c57600080fd5b50610285612340565b6040516102929190613df0565b60405180910390f35b6102b560048036038101906102b09190613872565b612346565b005b3480156102c357600080fd5b506102de60048036038101906102d99190613987565b61258d565b005b3480156102ec57600080fd5b5061030760048036038101906103029190613805565b612a33565b005b60045481565b610317612b2b565b73ffffffffffffffffffffffffffffffffffffffff16610335611d75565b73ffffffffffffffffffffffffffffffffffffffff161461038b576040517f08c379a000000000000000000000000000000000000000000000000000000000815260040161038290613d30565b60405180910390fd5b8060048190555050565b8280600880549050116103dd576040517f08c379a00000000000000000000000000000000000000000000000000000000081526004016103d490613d50565b60405180910390fd5b60018481600a8111156103f3576103f261419e565b5b60108281548110610407576104066141cd565b5b90600052602060002090602091828204019190069054906101000a900460ff16600a8111156104395761043861419e565b5b14610479576040517f08c379a000000000000000000000000000000000000000000000000000000000815260040161047090613cb0565b60405180910390fd5b853373ffffffffffffffffffffffffffffffffffffffff16601182815481106104a5576104a46141cd565b5b9060005260206000200160009054906101000a900473ffffffffffffffffffffffffffffffffffffffff1673ffffffffffffffffffffffffffffffffffffffff1614610526576040517f08c379a000000000000000000000000000000000000000000000000000000000815260040161051d90613d10565b60405180910390fd5b600060026001601260008b815260200190815260200160002060003373ffffffffffffffffffffffffffffffffffffffff1673ffffffffffffffffffffffffffffffffffffffff168152602001908152602001600020546105879190613e9e565b61059191906140de565b90506000600267ffffffffffffffff8111156105b0576105af6141fc565b5b6040519080825280602002602001820160405280156105de5781602001602082028036833780820191505090505b50905087816000815181106105f6576105f56141cd565b5b6020026020010181815250508681600181518110610617576106166141cd565b5b602002602001018181525050600260078a81548110610639576106386141cd565b5b906000526020600020018381548110610655576106546141cd565b5b9060005260206000200180549050146106a3576040517f08c379a000000000000000000000000000000000000000000000000000000000815260040161069a90613c50565b60405180910390fd5b60005b600281101561079857600060078b815481106106c5576106c46141cd565b5b9060005260206000200184815481106106e1576106e06141cd565b5b9060005260206000200182815481106106fd576106fc6141cd565b5b90600052602060002001541461071257600080fd5b818181518110610725576107246141cd565b5b602002602001015160078b81548110610741576107406141cd565b5b90600052602060002001848154811061075d5761075c6141cd565b5b906000526020600020018281548110610779576107786141cd565b5b90600052602060002001819055508061079190614095565b90506106a6565b50600689815481106107ad576107ac6141cd565b5b9060005260206000200182815481106107c9576107c86141cd565b5b9060005260206000200160009054906101000a900473ffffffffffffffffffffffffffffffffffffffff1660118a81548110610808576108076141cd565b5b9060005260206000200160006101000a81548173ffffffffffffffffffffffffffffffffffffffff021916908373ffffffffffffffffffffffffffffffffffffffff16021790555060008214156108a957600260108a8154811061086f5761086e6141cd565b5b90600052602060002090602091828204019190066101000a81548160ff0219169083600a8111156108a3576108a261419e565b5b02179055505b505050505050505050565b8080600880549050116108fc576040517f08c379a00000000000000000000000000000000000000000000000000000000081526004016108f390613d50565b60405180910390fd5b60008281600a8111156109125761091161419e565b5b60108281548110610926576109256141cd565b5b90600052602060002090602091828204019190069054906101000a900460ff16600a8111156109585761095761419e565b5b14610998576040517f08c379a000000000000000000000000000000000000000000000000000000000815260040161098f90613cb0565b60405180910390fd5b836000600a8111156109ad576109ac61419e565b5b601082815481106109c1576109c06141cd565b5b90600052602060002090602091828204019190069054906101000a900460ff16600a8111156109f3576109f261419e565b5b14610a33576040517f08c379a0000000000000000000000000000000000000000000000000000000008152600401610a2a90613dd0565b60405180910390fd5b60005b60068281548110610a4a57610a496141cd565b5b9060005260206000200180549050811015610b39573373ffffffffffffffffffffffffffffffffffffffff1660068381548110610a8a57610a896141cd565b5b906000526020600020018281548110610aa657610aa56141cd565b5b9060005260206000200160009054906101000a900473ffffffffffffffffffffffffffffffffffffffff1673ffffffffffffffffffffffffffffffffffffffff161415610b28576040517f08c379a0000000000000000000000000000000000000000000000000000000008152600401610b1f90613d70565b60405180910390fd5b80610b3290614095565b9050610a36565b50600060068281548110610b5057610b4f6141cd565b5b9060005260206000200180549050905060026001610b6e91906140de565b811415610be45760088281548110610b8957610b886141cd565b5b9060005260206000200154600554610ba19190613e9e565b341015610be3576040517f08c379a0000000000000000000000000000000000000000000000000000000008152600401610bda90613d90565b60405180910390fd5b5b600280610bf191906140de565b811415610c735760088281548110610c0c57610c0b6141cd565b5b90600052602060002001546002610c239190613f8d565b600554610c309190613e9e565b341015610c72576040517f08c379a0000000000000000000000000000000000000000000000000000000008152600401610c6990613cf0565b60405180910390fd5b5b600060068781548110610c8957610c886141cd565b5b90600052602060002001805490509050806012600089815260200190815260200160002060003373ffffffffffffffffffffffffffffffffffffffff1673ffffffffffffffffffffffffffffffffffffffff1681526020019081526020016000208190555060068781548110610d0257610d016141cd565b5b90600052602060002001339080600181540180825580915050600190039060005260206000200160009091909190916101000a81548173ffffffffffffffffffffffffffffffffffffffff021916908373ffffffffffffffffffffffffffffffffffffffff16021790555060006001821415610d9a5760088881548110610d8c57610d8b6141cd565b5b906000526020600020015490505b6002821415610dd15760088881548110610db757610db66141cd565b5b90600052602060002001546002610dce9190613f8d565b90505b60098881548110610de557610de46141cd565b5b9060005260206000200154811115610e1b578060098981548110610e0c57610e0b6141cd565b5b90600052602060002001819055505b600e8881548110610e2f57610e2e6141cd565b5b90600052602060002001819080600181540180825580915050600190039060005260206000200160009091909190915055600260068981548110610e7657610e756141cd565b5b90600052602060002001805490501415610f9257600160108981548110610ea057610e9f6141cd565b5b90600052602060002090602091828204019190066101000a81548160ff0219169083600a811115610ed457610ed361419e565b5b021790555060068881548110610eed57610eec6141cd565b5b90600052602060002001600081548110610f0a57610f096141cd565b5b9060005260206000200160009054906101000a900473ffffffffffffffffffffffffffffffffffffffff1660118981548110610f4957610f486141cd565b5b9060005260206000200160006101000a81548173ffffffffffffffffffffffffffffffffffffffff021916908373ffffffffffffffffffffffffffffffffffffffff1602179055505b5050505050505050565b610fa4612b2b565b73ffffffffffffffffffffffffffffffffffffffff16610fc2611d75565b73ffffffffffffffffffffffffffffffffffffffff1614611018576040517f08c379a000000000000000000000000000000000000000000000000000000000815260040161100f90613d30565b60405180910390fd5b6110226000612b33565b565b600060055460055434101561106e576040517f08c379a000000000000000000000000000000000000000000000000000000000815260040161106590613db0565b60405180910390fd5b600061107a6003612bf7565b905060006005543461108c9190613fe7565b9050600060028261109d9190613f2b565b90506008819080600181540180825580915050600190039060005260206000200160009091909190915055600960009080600181540180825580915050600190039060005260206000200160009091909190915055600a60009080600181540180825580915050600190039060005260206000200160009091909190916101000a81548173ffffffffffffffffffffffffffffffffffffffff021916908373ffffffffffffffffffffffffffffffffffffffff160217905550601160009080600181540180825580915050600190039060005260206000200160009091909190916101000a81548173ffffffffffffffffffffffffffffffffffffffff021916908373ffffffffffffffffffffffffffffffffffffffff160217905550600b600090806001815401808255809150506001900390600052602060002001600090919091909150556060600681908060018154018082558091505060019003906000526020600020016000909190919091509080519060200190611221929190613480565b506060600e8190806001815401808255809150506001900390600052602060002001600090919091909150908051906020019061125f92919061350a565b50611268613557565b600c819080600181540180825580915050600190039060005260206000200160009091909190915090600561129e929190613579565b506112a7613557565b600d81908060018154018082558091505060019003906000526020600020016000909190919091509060056112dd929190613579565b506112e66135c6565b6007819080600181540180825580915050600190039060005260206000200160009091909190915090600261131c9291906135f3565b506010600090806001815401808255809150506001900390600052602060002090602091828204019190069091909190916101000a81548160ff0219169083600a81111561136d5761136c61419e565b5b021790555061137b886108b4565b87995050505050505050505090565b8280600880549050116113d2576040517f08c379a00000000000000000000000000000000000000000000000000000000081526004016113c990613d50565b60405180910390fd5b8260ff16600a8111156113e8576113e761419e565b5b8481600a8111156113fc576113fb61419e565b5b601082815481106114105761140f6141cd565b5b90600052602060002090602091828204019190069054906101000a900460ff16600a8111156114425761144161419e565b5b14611482576040517f08c379a000000000000000000000000000000000000000000000000000000000815260040161147990613cb0565b60405180910390fd5b853373ffffffffffffffffffffffffffffffffffffffff16601182815481106114ae576114ad6141cd565b5b9060005260206000200160009054906101000a900473ffffffffffffffffffffffffffffffffffffffff1673ffffffffffffffffffffffffffffffffffffffff161461152f576040517f08c379a000000000000000000000000000000000000000000000000000000000815260040161152690613d10565b60405180910390fd5b866002600a8111156115445761154361419e565b5b60108281548110611558576115576141cd565b5b90600052602060002090602091828204019190069054906101000a900460ff16600a81111561158a5761158961419e565b5b14806115ed57506004600a8111156115a5576115a461419e565b5b601082815481106115b9576115b86141cd565b5b90600052602060002090602091828204019190069054906101000a900460ff16600a8111156115eb576115ea61419e565b5b145b8061164f57506006600a8111156116075761160661419e565b5b6010828154811061161b5761161a6141cd565b5b90600052602060002090602091828204019190069054906101000a900460ff16600a81111561164d5761164c61419e565b5b145b806116b157506008600a8111156116695761166861419e565b5b6010828154811061167d5761167c6141cd565b5b90600052602060002090602091828204019190069054906101000a900460ff16600a8111156116af576116ae61419e565b5b145b6116f0576040517f08c379a00000000000000000000000000000000000000000000000000000000081526004016116e790613cb0565b60405180910390fd5b6000601260008a815260200190815260200160002060003373ffffffffffffffffffffffffffffffffffffffff1673ffffffffffffffffffffffffffffffffffffffff168152602001908152602001600020549050600060026001836117569190613e9e565b61176091906140de565b905060068a81548110611776576117756141cd565b5b906000526020600020018181548110611792576117916141cd565b5b9060005260206000200160009054906101000a900473ffffffffffffffffffffffffffffffffffffffff1660118b815481106117d1576117d06141cd565b5b9060005260206000200160006101000a81548173ffffffffffffffffffffffffffffffffffffffff021916908373ffffffffffffffffffffffffffffffffffffffff16021790555060008860ff1660038111156118315761183061419e565b5b9050600060038111156118475761184661419e565b5b81600381111561185a5761185961419e565b5b141561196e57600a60108c81548110611876576118756141cd565b5b90600052602060002090602091828204019190066101000a81548160ff0219169083600a8111156118aa576118a961419e565b5b021790555060068b815481106118c3576118c26141cd565b5b9060005260206000200182815481106118df576118de6141cd565b5b9060005260206000200160009054906101000a900473ffffffffffffffffffffffffffffffffffffffff1660118c8154811061191e5761191d6141cd565b5b9060005260206000200160006101000a81548173ffffffffffffffffffffffffffffffffffffffff021916908373ffffffffffffffffffffffffffffffffffffffff160217905550505050611d6b565b6003808111156119815761198061419e565b5b8160038111156119945761199361419e565b5b1415611ac85760098b815481106119ae576119ad6141cd565b5b906000526020600020015460026119c59190613f8d565b600e8c815481106119d9576119d86141cd565b5b9060005260206000200184815481106119f5576119f46141cd565b5b90600052602060002001546002611a0c9190613f8d565b34611a179190613e9e565b1015611a58576040517f08c379a0000000000000000000000000000000000000000000000000000000008152600401611a4f90613cd0565b60405180910390fd5b600e8b81548110611a6c57611a6b6141cd565b5b906000526020600020018381548110611a8857611a876141cd565b5b906000526020600020015434611a9e9190613e9e565b60098c81548110611ab257611ab16141cd565b5b9060005260206000200181905550505050611d6b565b60026003811115611adc57611adb61419e565b5b816003811115611aef57611aee61419e565b5b1415611bc35734600e8c81548110611b0a57611b096141cd565b5b906000526020600020018481548110611b2657611b256141cd565b5b9060005260206000200154611b3b9190613e9e565b60098c81548110611b4f57611b4e6141cd565b5b90600052602060002001541115611b6557600080fd5b60098b81548110611b7957611b786141cd565b5b9060005260206000200154600e8c81548110611b9857611b976141cd565b5b906000526020600020018481548110611bb457611bb36141cd565b5b90600052602060002001819055505b60016003811115611bd757611bd661419e565b5b816003811115611bea57611be961419e565b5b1415611c8b57600e8b81548110611c0457611c036141cd565b5b906000526020600020018381548110611c2057611c1f6141cd565b5b906000526020600020015460098c81548110611c3f57611c3e6141cd565b5b906000526020600020015414611c8a576040517f08c379a0000000000000000000000000000000000000000000000000000000008152600401611c8190613c70565b60405180910390fd5b5b600082148015611cf25750600e8b81548110611caa57611ca96141cd565b5b906000526020600020018281548110611cc657611cc56141cd565b5b906000526020600020015460098c81548110611ce557611ce46141cd565b5b9060005260206000200154145b15611d675760018a611d049190613ef4565b60ff16600a811115611d1957611d1861419e565b5b60108c81548110611d2d57611d2c6141cd565b5b90600052602060002090602091828204019190066101000a81548160ff0219169083600a811115611d6157611d6061419e565b5b02179055505b5050505b5050505050505050565b60008060009054906101000a900473ffffffffffffffffffffffffffffffffffffffff16905090565b611da6612b2b565b73ffffffffffffffffffffffffffffffffffffffff16611dc4611d75565b73ffffffffffffffffffffffffffffffffffffffff1614611e1a576040517f08c379a0000000000000000000000000000000000000000000000000000000008152600401611e1190613d30565b60405180910390fd5b8060058190555050565b838060088054905011611e6c576040517f08c379a0000000000000000000000000000000000000000000000000000000008152600401611e6390613d50565b60405180910390fd5b83600a811115611e7f57611e7e61419e565b5b8581600a811115611e9357611e9261419e565b5b60108281548110611ea757611ea66141cd565b5b90600052602060002090602091828204019190069054906101000a900460ff16600a811115611ed957611ed861419e565b5b14611f19576040517f08c379a0000000000000000000000000000000000000000000000000000000008152600401611f1090613cb0565b60405180910390fd5b863373ffffffffffffffffffffffffffffffffffffffff1660118281548110611f4557611f446141cd565b5b9060005260206000200160009054906101000a900473ffffffffffffffffffffffffffffffffffffffff1673ffffffffffffffffffffffffffffffffffffffff1614611fc6576040517f08c379a0000000000000000000000000000000000000000000000000000000008152600401611fbd90613d10565b60405180910390fd5b876003600a811115611fdb57611fda61419e565b5b60108281548110611fef57611fee6141cd565b5b90600052602060002090602091828204019190069054906101000a900460ff16600a8111156120215761202061419e565b5b148061208457506005600a81111561203c5761203b61419e565b5b601082815481106120505761204f6141cd565b5b90600052602060002090602091828204019190069054906101000a900460ff16600a8111156120825761208161419e565b5b145b806120e657506007600a81111561209e5761209d61419e565b5b601082815481106120b2576120b16141cd565b5b90600052602060002090602091828204019190069054906101000a900460ff16600a8111156120e4576120e361419e565b5b145b612125576040517f08c379a000000000000000000000000000000000000000000000000000000000815260040161211c90613cb0565b60405180910390fd5b6000601260008b815260200190815260200160002060003373ffffffffffffffffffffffffffffffffffffffff1673ffffffffffffffffffffffffffffffffffffffff1681526020019081526020016000205490506000600260018361218b9190613e9e565b61219591906140de565b905060068b815481106121ab576121aa6141cd565b5b9060005260206000200181815481106121c7576121c66141cd565b5b9060005260206000200160009054906101000a900473ffffffffffffffffffffffffffffffffffffffff1660118c81548110612206576122056141cd565b5b9060005260206000200160006101000a81548173ffffffffffffffffffffffffffffffffffffffff021916908373ffffffffffffffffffffffffffffffffffffffff160217905550600082141561225e57505061226e565b61226b8b8b8b8b85612c05565b50505b505050505050505050565b612281612b2b565b73ffffffffffffffffffffffffffffffffffffffff1661229f611d75565b73ffffffffffffffffffffffffffffffffffffffff16146122f5576040517f08c379a00000000000000000000000000000000000000000000000000000000081526004016122ec90613d30565b60405180910390fd5b8173ffffffffffffffffffffffffffffffffffffffff166108fc829081150290604051600060405180830381858888f1935050505015801561233b573d6000803e3d6000fd5b505050565b60055481565b80806008805490501161238e576040517f08c379a000000000000000000000000000000000000000000000000000000000815260040161238590613d50565b60405180910390fd5b600a8281600a8111156123a4576123a361419e565b5b601082815481106123b8576123b76141cd565b5b90600052602060002090602091828204019190069054906101000a900460ff16600a8111156123ea576123e961419e565b5b1461242a576040517f08c379a000000000000000000000000000000000000000000000000000000000815260040161242190613cb0565b60405180910390fd5b833373ffffffffffffffffffffffffffffffffffffffff1660118281548110612456576124556141cd565b5b9060005260206000200160009054906101000a900473ffffffffffffffffffffffffffffffffffffffff1673ffffffffffffffffffffffffffffffffffffffff16146124d7576040517f08c379a00000000000000000000000000000000000000000000000000000000081526004016124ce90613d10565b60405180910390fd5b6000805b600281101561253d57600e87815481106124f8576124f76141cd565b5b906000526020600020018181548110612514576125136141cd565b5b90600052602060002001548261252a9190613e9e565b91508061253690614095565b90506124db565b503373ffffffffffffffffffffffffffffffffffffffff166108fc829081150290604051600060405180830381858888f19350505050158015612584573d6000803e3d6000fd5b50505050505050565b60006012600086815260200190815260200160002060003373ffffffffffffffffffffffffffffffffffffffff1673ffffffffffffffffffffffffffffffffffffffff168152602001908152602001600020549050600060026001836125f39190613e9e565b6125fd91906140de565b905060068681548110612613576126126141cd565b5b90600052602060002001818154811061262f5761262e6141cd565b5b9060005260206000200160009054906101000a900473ffffffffffffffffffffffffffffffffffffffff166011878154811061266e5761266d6141cd565b5b9060005260206000200160006101000a81548173ffffffffffffffffffffffffffffffffffffffff021916908373ffffffffffffffffffffffffffffffffffffffff1602179055506126be61364e565b60005b60028110156127da5773__PokerUtils____________________________631a4f18fa60078a815481106126f8576126f76141cd565b5b906000526020600020018681548110612714576127136141cd565b5b9060005260206000200183815481106127305761272f6141cd565b5b9060005260206000200154896004546040518463ffffffff1660e01b815260040161275d93929190613e0b565b60206040518083038186803b15801561277557600080fd5b505af4158015612789573d6000803e3d6000fd5b505050506040513d601f19601f820116820180604052508101906127ad919061389f565b8282600281106127c0576127bf6141cd565b5b602002018181525050806127d390614095565b90506126c1565b506127e3613557565b60005b600581101561285757600c8981548110612803576128026141cd565b5b90600052602060002001818154811061281f5761281e6141cd565b5b906000526020600020015482826005811061283d5761283c6141cd565b5b6020020181815250508061285090614095565b90506127e6565b50612863868284612e47565b61286c57600080fd5b6128768686612f42565b61287f57600080fd5b600061288b87876131dd565b9050600b89815481106128a1576128a06141cd565b5b90600052602060002001548111156129345780600b8a815481106128c8576128c76141cd565b5b906000526020600020018190555033600a8a815481106128eb576128ea6141cd565b5b9060005260206000200160006101000a81548173ffffffffffffffffffffffffffffffffffffffff021916908373ffffffffffffffffffffffffffffffffffffffff1602179055505b6000841415612a2857600a60108a81548110612953576129526141cd565b5b90600052602060002090602091828204019190066101000a81548160ff0219169083600a8111156129875761298661419e565b5b0217905550600a89815481106129a05761299f6141cd565b5b9060005260206000200160009054906101000a900473ffffffffffffffffffffffffffffffffffffffff1660118a815481106129df576129de6141cd565b5b9060005260206000200160006101000a81548173ffffffffffffffffffffffffffffffffffffffff021916908373ffffffffffffffffffffffffffffffffffffffff1602179055505b505050505050505050565b612a3b612b2b565b73ffffffffffffffffffffffffffffffffffffffff16612a59611d75565b73ffffffffffffffffffffffffffffffffffffffff1614612aaf576040517f08c379a0000000000000000000000000000000000000000000000000000000008152600401612aa690613d30565b60405180910390fd5b600073ffffffffffffffffffffffffffffffffffffffff168173ffffffffffffffffffffffffffffffffffffffff161415612b1f576040517f08c379a0000000000000000000000000000000000000000000000000000000008152600401612b1690613c90565b60405180910390fd5b612b2881612b33565b50565b600033905090565b60008060009054906101000a900473ffffffffffffffffffffffffffffffffffffffff169050816000806101000a81548173ffffffffffffffffffffffffffffffffffffffff021916908373ffffffffffffffffffffffffffffffffffffffff1602179055508173ffffffffffffffffffffffffffffffffffffffff168173ffffffffffffffffffffffffffffffffffffffff167f8be0079c531659141344cd1fd0a4f28419497f9722a3daafe3b4186f6b6457e060405160405180910390a35050565b600081600001549050919050565b600060108681548110612c1b57612c1a6141cd565b5b90600052602060002090602091828204019190069054906101000a900460ff16905060006001600083600a811115612c5657612c5561419e565b5b600a811115612c6857612c6761419e565b5b815260200190815260200160002060009054906101000a900460ff1660ff16905060006002600084600a811115612ca257612ca161419e565b5b600a811115612cb457612cb361419e565b5b815260200190815260200160002060009054906101000a900460ff1660ff1690506000600c8981548110612ceb57612cea6141cd565b5b9060005260206000200190506000600d8a81548110612d0d57612d0c6141cd565b5b90600052602060002001905060005b84811015612dc457600081600186612d349190613fe7565b612d3e9190613fe7565b9050888260038110612d5357612d526141cd565b5b6020020151848281548110612d6b57612d6a6141cd565b5b9060005260206000200181905550898260038110612d8c57612d8b6141cd565b5b6020020151838281548110612da457612da36141cd565b5b90600052602060002001819055505080612dbd90614095565b9050612d1c565b506000861415612e3b57600189612ddb9190613e9e565b600a811115612ded57612dec61419e565b5b60108b81548110612e0157612e006141cd565b5b90600052602060002090602091828204019190066101000a81548160ff0219169083600a811115612e3557612e3461419e565b5b02179055505b50505050505050505050565b600080600090505b6005811015612f35576000603460ff1686612e6a91906140de565b9050603460ff1686612e7c9190613f2b565b95506000805b6005811015612ec757868160058110612e9e57612e9d6141cd565b5b60200201518360ff161415612eb65760019150612ec7565b80612ec090614095565b9050612e82565b5060005b6002811015612f1057858160028110612ee757612ee66141cd565b5b60200201518360ff161415612eff5760019150612f10565b80612f0990614095565b9050612ecb565b5080612f225760009350505050612f3b565b505080612f2e90614095565b9050612e4f565b50600190505b9392505050565b6000808260ff166008811115612f5b57612f5a61419e565b5b905060006008811115612f7157612f7061419e565b5b816008811115612f8457612f8361419e565b5b1415612f945760019150506131d7565b60016008811115612fa857612fa761419e565b5b816008811115612fbb57612fba61419e565b5b1415612fd657612fce8460026000613282565b9150506131d7565b60026008811115612fea57612fe961419e565b5b816008811115612ffd57612ffc61419e565b5b141561302c576130108460026000613282565b8015613024575061302384600280613282565b5b9150506131d7565b600360088111156130405761303f61419e565b5b8160088111156130535761305261419e565b5b141561306e576130668460036000613282565b9150506131d7565b600460088111156130825761308161419e565b5b8160088111156130955761309461419e565b5b14156130ac576130a484613347565b9150506131d7565b600560088111156130c0576130bf61419e565b5b8160088111156130d3576130d261419e565b5b14156130ea576130e2846133e3565b9150506131d7565b600660088111156130fe576130fd61419e565b5b8160088111156131115761311061419e565b5b1415613141576131248460036000613282565b801561313957506131388460026003613282565b5b9150506131d7565b600760088111156131555761315461419e565b5b8160088111156131685761316761419e565b5b14156131835761317b8460046000613282565b9150506131d7565b6008808111156131965761319561419e565b5b8160088111156131a9576131a861419e565b5b14156131d1576131b884613347565b80156131c957506131c8846133e3565b5b9150506131d7565b60009150505b92915050565b6000806000905060005b600581101561325a576000603460ff168661320291906140de565b905060006004826132139190613f5c565b9050603460ff16876132259190613f2b565b9650600d846132349190613f8d565b93508060ff16846132459190613e9e565b935050508061325390614095565b90506131e7565b50808360ff166316a9740061326f9190613f8d565b6132799190613e9e565b91505092915050565b6000806034905060005b6005811015613339576000603460ff16876132a791906140de565b905060006004826132b89190613f5c565b9050603460ff16886132ca9190613f2b565b97508560ff1683101580156132ec575086866132e69190613ef4565b60ff1683105b1561332557603460ff168460ff16141561330a578093505050613328565b8060ff168460ff1614613324576000945050505050613340565b5b50505b8061333290614095565b905061328c565b5060019150505b9392505050565b6000806034905060005b60058110156133d7576000603460ff168561336c91906140de565b9050600060048261337d9190613f5c565b9050603460ff168661338f9190613f2b565b955060008311156133c1576001846133a79190613ef4565b60ff168160ff16146133c05760009450505050506133de565b5b8093505050806133d090614095565b9050613351565b5060019150505b919050565b6000806034905060005b6005811015613474576000603460ff168561340891906140de565b90506000600482613419919061410f565b9050603460ff168661342b9190613f2b565b9550603460ff168460ff161415613446578093505050613463565b8060ff168460ff161461346057600094505050505061347b565b50505b8061346d90614095565b90506133ed565b5060019150505b919050565b8280548282559060005260206000209081019282156134f9579160200282015b828111156134f85782518260006101000a81548173ffffffffffffffffffffffffffffffffffffffff021916908373ffffffffffffffffffffffffffffffffffffffff160217905550916020019190600101906134a0565b5b5090506135069190613670565b5090565b828054828255906000526020600020908101928215613546579160200282015b8281111561354557825182559160200191906001019061352a565b5b5090506135539190613670565b5090565b6040518060a00160405280600590602082028036833780820191505090505090565b8280548282559060005260206000209081019282156135b5579160200282015b828111156135b4578251825591602001919060010190613599565b5b5090506135c29190613670565b5090565b60405180604001604052806002905b6135dd61364e565b8152602001906001900390816135d55790505090565b82805482825590600052602060002090810192821561363d579160200282015b8281111561363c5782518290600261362c92919061368d565b5091602001919060010190613613565b5b50905061364a91906136da565b5090565b6040518060400160405280600290602082028036833780820191505090505090565b5b80821115613689576000816000905550600101613671565b5090565b8280548282559060005260206000209081019282156136c9579160200282015b828111156136c85782518255916020019190600101906136ad565b5b5090506136d69190613670565b5090565b5b808211156136fa57600081816136f191906136fe565b506001016136db565b5090565b508054600082559060005260206000209081019061371c9190613670565b50565b600061373261372d84613e67565b613e42565b9050808285602086028201111561374c5761374b614230565b5b60005b8581101561377c578161376288826137c6565b84526020840193506020830192505060018101905061374f565b5050509392505050565b600081359050613795816145b6565b92915050565b600082601f8301126137b0576137af61422b565b5b60036137bd84828561371f565b91505092915050565b6000813590506137d5816145cd565b92915050565b6000815190506137ea816145cd565b92915050565b6000813590506137ff816145e4565b92915050565b60006020828403121561381b5761381a614235565b5b600061382984828501613786565b91505092915050565b6000806040838503121561384957613848614235565b5b600061385785828601613786565b9250506020613868858286016137c6565b9150509250929050565b60006020828403121561388857613887614235565b5b6000613896848285016137c6565b91505092915050565b6000602082840312156138b5576138b4614235565b5b60006138c3848285016137db565b91505092915050565b60008060008061010085870312156138e7576138e6614235565b5b60006138f5878288016137c6565b9450506020613906878288016137c6565b93505060406139178782880161379b565b92505060a06139288782880161379b565b91505092959194509250565b60008060006060848603121561394d5761394c614235565b5b600061395b868287016137c6565b935050602061396c868287016137c6565b925050604061397d868287016137c6565b9150509250925092565b600080600080608085870312156139a1576139a0614235565b5b60006139af878288016137c6565b94505060206139c0878288016137c6565b93505060406139d1878288016137c6565b92505060606139e2878288016137f0565b91505092959194509250565b600080600060608486031215613a0757613a06614235565b5b6000613a15868287016137c6565b9350506020613a26868287016137f0565b9250506040613a37868287016137f0565b9150509250925092565b613a4a8161401b565b82525050565b6000613a5d601f83613e8d565b9150613a688261424b565b602082019050919050565b6000613a80603083613e8d565b9150613a8b82614274565b604082019050919050565b6000613aa3602683613e8d565b9150613aae826142c3565b604082019050919050565b6000613ac6602283613e8d565b9150613ad182614312565b604082019050919050565b6000613ae9604b83613e8d565b9150613af482614361565b606082019050919050565b6000613b0c601c83613e8d565b9150613b17826143d6565b602082019050919050565b6000613b2f602783613e8d565b9150613b3a826143ff565b604082019050919050565b6000613b52602083613e8d565b9150613b5d8261444e565b602082019050919050565b6000613b75602283613e8d565b9150613b8082614477565b604082019050919050565b6000613b98602683613e8d565b9150613ba3826144c6565b604082019050919050565b6000613bbb601e83613e8d565b9150613bc682614515565b602082019050919050565b6000613bde602c83613e8d565b9150613be98261453e565b604082019050919050565b6000613c01601883613e8d565b9150613c0c8261458d565b602082019050919050565b613c208161404d565b82525050565b613c2f8161404d565b82525050565b6000602082019050613c4a6000830184613a41565b92915050565b60006020820190508181036000830152613c6981613a50565b9050919050565b60006020820190508181036000830152613c8981613a73565b9050919050565b60006020820190508181036000830152613ca981613a96565b9050919050565b60006020820190508181036000830152613cc981613ab9565b9050919050565b60006020820190508181036000830152613ce981613adc565b9050919050565b60006020820190508181036000830152613d0981613aff565b9050919050565b60006020820190508181036000830152613d2981613b22565b9050919050565b60006020820190508181036000830152613d4981613b45565b9050919050565b60006020820190508181036000830152613d6981613b68565b9050919050565b60006020820190508181036000830152613d8981613b8b565b9050919050565b60006020820190508181036000830152613da981613bae565b9050919050565b60006020820190508181036000830152613dc981613bd1565b9050919050565b60006020820190508181036000830152613de981613bf4565b9050919050565b6000602082019050613e056000830184613c17565b92915050565b6000606082019050613e206000830186613c26565b613e2d6020830185613c26565b613e3a6040830184613c26565b949350505050565b6000613e4c613e5d565b9050613e588282614064565b919050565b6000604051905090565b600067ffffffffffffffff821115613e8257613e816141fc565b5b602082029050919050565b600082825260208201905092915050565b6000613ea98261404d565b9150613eb48361404d565b9250827fffffffffffffffffffffffffffffffffffffffffffffffffffffffffffffffff03821115613ee957613ee8614140565b5b828201905092915050565b6000613eff82614057565b9150613f0a83614057565b92508260ff03821115613f2057613f1f614140565b5b828201905092915050565b6000613f368261404d565b9150613f418361404d565b925082613f5157613f5061416f565b5b828204905092915050565b6000613f6782614057565b9150613f7283614057565b925082613f8257613f8161416f565b5b828204905092915050565b6000613f988261404d565b9150613fa38361404d565b9250817fffffffffffffffffffffffffffffffffffffffffffffffffffffffffffffffff0483118215151615613fdc57613fdb614140565b5b828202905092915050565b6000613ff28261404d565b9150613ffd8361404d565b9250828210156140105761400f614140565b5b828203905092915050565b60006140268261402d565b9050919050565b600073ffffffffffffffffffffffffffffffffffffffff82169050919050565b6000819050919050565b600060ff82169050919050565b61406d8261423a565b810181811067ffffffffffffffff8211171561408c5761408b6141fc565b5b80604052505050565b60006140a08261404d565b91507fffffffffffffffffffffffffffffffffffffffffffffffffffffffffffffffff8214156140d3576140d2614140565b5b600182019050919050565b60006140e98261404d565b91506140f48361404d565b9250826141045761410361416f565b5b828206905092915050565b600061411a82614057565b915061412583614057565b9250826141355761413461416f565b5b828206905092915050565b7f4e487b7100000000000000000000000000000000000000000000000000000000600052601160045260246000fd5b7f4e487b7100000000000000000000000000000000000000000000000000000000600052601260045260246000fd5b7f4e487b7100000000000000000000000000000000000000000000000000000000600052602160045260246000fd5b7f4e487b7100000000000000000000000000000000000000000000000000000000600052603260045260246000fd5b7f4e487b7100000000000000000000000000000000000000000000000000000000600052604160045260246000fd5b600080fd5b600080fd5b600080fd5b6000601f19601f8301169050919050565b7f756e6578706563746564206e756d626572206f66206361726448617368657300600082015250565b7f43616e277420646f20636865636b2c20616374696f6e2073686f756c6420626560008201527f2063616c6c2f72616973652f666f6c6400000000000000000000000000000000602082015250565b7f4f776e61626c653a206e6577206f776e657220697320746865207a65726f206160008201527f6464726573730000000000000000000000000000000000000000000000000000602082015250565b7f616374696f6e20726571756972657320616e6f746865722067616d652073746160008201527f7465000000000000000000000000000000000000000000000000000000000000602082015250565b7f526572616973652073686f756c64206265206174206c6561737420746865207360008201527f616d652061732073756d206f662070726576696f75732072616973657320617460208201527f207468697320726f756e64000000000000000000000000000000000000000000604082015250565b7f6e656564206d6f7265206d6f6e657920666f7220626967426c696e6400000000600082015250565b7f67616d65206578706563747320616374696f6e2066726f6d20616e6f7468657260008201527f20706c6179657200000000000000000000000000000000000000000000000000602082015250565b7f4f776e61626c653a2063616c6c6572206973206e6f7420746865206f776e6572600082015250565b7f67616d6520776974682070726f76696465642069642073686f756c642065786960008201527f7374000000000000000000000000000000000000000000000000000000000000602082015250565b7f6d73672e73656e6465722068617320616c6561726479206a6f696e656420746860008201527f652067616d650000000000000000000000000000000000000000000000000000602082015250565b7f6e656564206d6f7265206d6f6e657920666f7220736d616c6c426c696e640000600082015250565b7f6d73672e76616c75652073686f756c64206265206d6f7265206f72206571756160008201527f6c207468616e2070726963650000000000000000000000000000000000000000602082015250565b7f67616d652068617320616c726561647920737461727465640000000000000000600082015250565b6145bf8161401b565b81146145ca57600080fd5b50565b6145d68161404d565b81146145e157600080fd5b50565b6145ed81614057565b81146145f857600080fd5b5056fea2646970667358221220516f93fe9305c18875d04b240311c8fd018254b42662597adcbe901dbb31e48f64736f6c63430008070033",
  "immutableReferences": {},
  "source": "// SPDX-License-Identifier: GPL-3.0\npragma solidity >=0.7.0 <0.9.0;\n\nimport \"@openzeppelin/contracts/access/Ownable.sol\";\nimport \"@openzeppelin/contracts/utils/Counters.sol\";\nimport './PokerUtils.sol';\n\ncontract PokerRoom is Ownable {\n    uint private constant N_PLAYERS = 2;\n    uint private constant N_PRIVATE_CARDS = 2;\n    uint private constant N_PUBLIC_CARDS = 5;\n\n    uint private constant DEALER_POSITION = 0;\n    uint private constant SMALL_BLIND_POSITION = 1;\n    uint private constant BIG_BLIND_POSITION = 2;\n\n    enum GameState {\n        WAITING,\n        DEALING,\n        PREFLOP,\n        OPEN_FLOP,\n        FLOP,\n        OPEN_TURN,\n        TURN,\n        OPEN_RIVER,\n        RIVER,\n        SHOWDOWN,\n        WINNER_CHOOSEN\n    }\n\n    enum ActionType {\n        FOLD,\n        CHECK,\n        CALL,\n        RAISE\n    }\n\n    mapping(GameState => uint8) NEED_CARDS_AT_STATE;\n    mapping(GameState => uint8) OPEN_CARDS_AT_STATE;\n\n    using Counters for Counters.Counter;\n    Counters.Counter private _gameCount;\n\n    uint256 public cipherModulo;\n    uint256 public gameFee;\n\n    address[][] private players;\n    uint256[][][] private cardHashes;\n    uint256[] private smallBlinds;\n    uint256[] private maxPot;\n    address[] private winner;\n    uint256[] private winnerRank;\n    uint256[][] private publicCards;\n    uint256[][] private publicCardsHashes;\n    uint256[][] private pots;\n    uint[] private roundNumbers;\n    GameState[] private gameState;\n    address[] private actionExpectedFrom;\n    mapping(uint => mapping(address => uint)) private player2position;\n\n\n    constructor(uint256 gameFee_, uint256 cipherModulo_) {\n        gameFee = gameFee_;\n        cipherModulo = cipherModulo_;\n        OPEN_CARDS_AT_STATE[GameState.OPEN_FLOP] = 3;\n        OPEN_CARDS_AT_STATE[GameState.OPEN_TURN] = 4;\n        OPEN_CARDS_AT_STATE[GameState.OPEN_RIVER] = 5;\n\n        NEED_CARDS_AT_STATE[GameState.OPEN_FLOP] = 3;\n        NEED_CARDS_AT_STATE[GameState.OPEN_TURN] = 1;\n        NEED_CARDS_AT_STATE[GameState.OPEN_RIVER] = 1;\n    }\n\n    modifier costs(uint price) {\n        require(msg.value >= gameFee, \"msg.value should be more or equal than price\");\n        _;\n    }\n\n    modifier gameIsExist(uint256 gameId) {\n        require(smallBlinds.length > gameId, \"game with provided id should exist\");\n        _;\n    }\n\n    modifier gameStateEquals(GameState state, uint256 gameId) {\n        require(gameState[gameId] == state, \"action requires another game state\");\n        _;\n    }\n\n    modifier gameStateIsOpenCards(uint256 gameId) {\n        require(gameState[gameId] == GameState.OPEN_FLOP\n            || gameState[gameId] == GameState.OPEN_TURN\n            || gameState[gameId] == GameState.OPEN_RIVER\n            , \"action requires another game state\");\n        _;\n    }\n\n    modifier gameStateIsTurn(uint256 gameId) {\n        require(gameState[gameId] == GameState.PREFLOP\n            || gameState[gameId] == GameState.FLOP\n            || gameState[gameId] == GameState.TURN\n            || gameState[gameId] == GameState.RIVER\n            , \"action requires another game state\");\n        _;\n    }\n\n    modifier actionExpectedFromPlayer(uint256 gameId) {\n        require(actionExpectedFrom[gameId] == msg.sender, \"game expects action from another player\");\n        _;\n    }\n\n\n    modifier canJoinGame(uint256 gameId) {\n        require(gameState[gameId] == GameState.WAITING, \"game has already started\");\n        for (uint i = 0; i < players[gameId].length; ++i) {\n            require(players[gameId][i] != msg.sender, \"msg.sender has aleardy joined the game\");\n        }\n        uint position = players[gameId].length;\n        if (position == SMALL_BLIND_POSITION % N_PLAYERS) {\n            require(msg.value >= gameFee + smallBlinds[gameId], \"need more money for smallBlind\");\n        }\n        if (position == BIG_BLIND_POSITION % N_PLAYERS) {\n            require(msg.value >= gameFee + 2 * smallBlinds[gameId], \"need more money for bigBlind\");\n        }\n        _;\n    }\n\n    function setGameFee(uint256 gameFee_) public onlyOwner {\n        gameFee = gameFee_;\n    }\n\n    function setCipherModulo(uint256 cipherModulo_) public onlyOwner {\n        cipherModulo = cipherModulo_;\n    }\n\n    function widthdraw(address _address, uint256 amount) public payable onlyOwner {\n        payable(_address).transfer(amount);\n    }\n\n    function createGame() public payable costs(gameFee) returns(uint256) {\n        uint256 newGameId = _gameCount.current();\n        uint256 bigBlind = msg.value - gameFee;\n        uint256 smallBlind = bigBlind / 2;\n        smallBlinds.push(smallBlind);\n        maxPot.push(0);\n        winner.push(address(0));\n        actionExpectedFrom.push(address(0));\n        winnerRank.push(0);\n        address[] memory newPlayers;\n        players.push(newPlayers);\n\n        uint256[] memory newPots;\n        pots.push(newPots);\n\n        uint256[N_PUBLIC_CARDS] memory newCards;\n        publicCards.push(newCards);\n\n        uint256[N_PUBLIC_CARDS] memory newCardsHashes;\n        publicCardsHashes.push(newCardsHashes);\n\n        uint256[N_PLAYERS][N_PRIVATE_CARDS] memory hashes;\n        cardHashes.push(hashes);\n        gameState.push(GameState.WAITING);\n        enterGame(newGameId);\n        return newGameId;\n    }\n\n    function enterGame(uint256 gameId) public payable\n            gameIsExist(gameId)\n            gameStateEquals(GameState.WAITING, gameId)\n            canJoinGame(gameId) {\n        uint position = players[gameId].length;\n        player2position[gameId][msg.sender] = position;\n        players[gameId].push(msg.sender);\n        uint256 pot = 0;\n        if (position == SMALL_BLIND_POSITION) {\n            pot = smallBlinds[gameId];\n        }\n        if (position == BIG_BLIND_POSITION) {\n            pot = 2 * smallBlinds[gameId];\n        }\n        if (pot > maxPot[gameId]) {\n            maxPot[gameId] = pot;\n        }\n        pots[gameId].push(pot);\n\n        if (players[gameId].length == N_PLAYERS) {\n            gameState[gameId] = GameState.DEALING;\n            actionExpectedFrom[gameId] = players[gameId][DEALER_POSITION];\n        }\n    }\n\n    // DEALING:\n    // based on http://people.csail.mit.edu/rivest/ShamirRivestAdleman-MentalPoker.pdf\n    // first and second players have P1 and P2 reversable hashes based on discrete logarithms over same prime modulo\n    // with properties P1(P2(x)) = P2(P1(x)) and P^(-1) (P(x)) = x\n    // so first player creates permutation of hashes P_1 = P1(card1) ... P_N = P1(cardN),\n    // second player chooses indicies j_1, j_2 and provides P2(P_j_2), P2(P_j_2)\n    // after that first player provides their P1^(-1) P2(P_j_1), P1^(-1) P2(P_j_2) - cards for second player\n    // also second player chooses two another indicies and provide this hashes P_i_1, P_i_2 - cards for first player\n    function provideCardHashesForDealing(uint256 gameId, uint256 card1Hash, uint256 card2Hash) public\n            gameIsExist(gameId)\n            gameStateEquals(GameState.DEALING, gameId)\n            actionExpectedFromPlayer(gameId) {\n        uint nextPosition = (player2position[gameId][msg.sender] + 1) % N_PLAYERS;\n        uint256[] memory nextPlayerHashes = new uint256[](N_PRIVATE_CARDS);\n        nextPlayerHashes[0] = card1Hash;\n        nextPlayerHashes[1] = card2Hash;\n        require(cardHashes[gameId][nextPosition].length == N_PRIVATE_CARDS, \"unexpected number of cardHashes\");\n        for (uint i = 0;i < N_PRIVATE_CARDS; ++i) {\n            require(cardHashes[gameId][nextPosition][i] == 0);\n            cardHashes[gameId][nextPosition][i] = nextPlayerHashes[i];\n        }\n        actionExpectedFrom[gameId] = players[gameId][nextPosition];\n\n        if (nextPosition == DEALER_POSITION) {\n            gameState[gameId] = GameState.PREFLOP;\n        }\n    }\n\n    // PREFLOP\n    // FLOP\n    // TURN\n    // RIVER\n    function makeTurn(uint256 gameId, uint8 gameStateCode, uint8 actionTypeCode) public payable\n            gameIsExist(gameId)\n            gameStateEquals(GameState(gameStateCode), gameId)\n            actionExpectedFromPlayer(gameId)\n            gameStateIsTurn(gameId) {\n        uint position = player2position[gameId][msg.sender];\n        uint nextPosition = (position + 1) % N_PLAYERS;\n        actionExpectedFrom[gameId] = players[gameId][nextPosition];\n\n        ActionType action = ActionType(actionTypeCode);\n\n        if (action == ActionType.FOLD) {\n            gameState[gameId] = GameState.WINNER_CHOOSEN;\n            actionExpectedFrom[gameId] =  players[gameId][nextPosition];\n            return;\n        }\n\n        if (action == ActionType.RAISE) {\n            require(msg.value + 2 * pots[gameId][position] >= 2 * maxPot[gameId],\n                \"Reraise should be at least the same as sum of previous raises at this round\");\n            maxPot[gameId] = msg.value + pots[gameId][position];\n            return;\n        }\n\n        if (action == ActionType.CALL) {\n            require(maxPot[gameId] <= pots[gameId][position] + msg.value);\n            pots[gameId][position] = maxPot[gameId];\n        }\n\n        if (action == ActionType.CHECK) {\n            require(maxPot[gameId] == pots[gameId][position],\n                \"Can't do check, action should be call/raise/fold\");\n        }\n\n        if (nextPosition == DEALER_POSITION && maxPot[gameId] == pots[gameId][nextPosition]) {\n            gameState[gameId] = GameState(gameStateCode + 1);\n        }\n    }\n\n    // OPEN_FLOP\n    // OPEN_TURN\n    // OPEN_RIVER\n    // Basic action - second player choose some hashes and supply them signed by first player,\n    // also first player supply values of the hashes\n    function openNextCards(\n        uint256 gameId,\n        uint256 gameStateCode,\n        uint256[3] memory newCardHashes,\n        uint256[3] memory newCards) public\n            gameIsExist(gameId)\n            gameStateEquals(GameState(gameStateCode), gameId)\n            actionExpectedFromPlayer(gameId)\n            gameStateIsOpenCards(gameId) {\n        uint position = player2position[gameId][msg.sender];\n        uint nextPosition = (position + 1) % N_PLAYERS;\n        actionExpectedFrom[gameId] = players[gameId][nextPosition];\n\n        if (position == DEALER_POSITION) {\n            return;\n        }\n\n        updateCardInfo(gameId, gameStateCode, newCardHashes, newCards, nextPosition);\n    }\n\n    function updateCardInfo(\n        uint256 gameId,\n        uint256 gameStateCode,\n        uint256[3] memory newCardHashes,\n        uint256[3] memory newCards,\n        uint nextPosition\n    ) private {\n        GameState state = gameState[gameId];\n        uint needCards = NEED_CARDS_AT_STATE[state];\n        uint offset = OPEN_CARDS_AT_STATE[state];\n        uint256[] storage currentPublicCards = publicCards[gameId];\n        uint256[] storage currentPublicCardsHashes = publicCardsHashes[gameId];\n        for(uint i = 0;i < needCards; ++i) {\n            uint pos = offset - 1 - i;\n            currentPublicCards[pos] = newCards[i];\n            currentPublicCardsHashes[pos] = newCardHashes[i];\n        }\n\n        if (nextPosition == DEALER_POSITION) {\n            gameState[gameId] = GameState(gameStateCode + 1);\n        }\n    }\n\n    // HANDSUP\n    function submitKeys(uint256 gameId, uint256 privatePower, uint256 claimedHandCode, uint8 claimedCombination) public {\n        uint position = player2position[gameId][msg.sender];\n        uint nextPosition = (position + 1) % N_PLAYERS;\n        actionExpectedFrom[gameId] = players[gameId][nextPosition];\n\n        uint256[N_PRIVATE_CARDS] memory privateCards;\n        for(uint i = 0; i < N_PRIVATE_CARDS; ++i) {\n            privateCards[i] = PokerUtils.decipherCard(cardHashes[gameId][position][i], privatePower, cipherModulo);\n        }\n        uint256[N_PUBLIC_CARDS] memory gamePublicCards;\n        for (uint i = 0;i < N_PUBLIC_CARDS; ++i) {\n            gamePublicCards[i] = publicCards[gameId][i];\n        }\n        require(PokerUtils.checkClaimedHandWithPrivate(claimedHandCode, gamePublicCards, privateCards));\n        require(PokerUtils.checkClaimedCombination(claimedHandCode, claimedCombination));\n        uint256 currentRank = PokerUtils.calcHandRank(claimedHandCode, claimedCombination);\n        if (currentRank > winnerRank[gameId]) {\n            winnerRank[gameId] = currentRank;\n            winner[gameId] = msg.sender;\n        }\n        if (nextPosition == DEALER_POSITION) {\n            gameState[gameId] = GameState.WINNER_CHOOSEN;\n            actionExpectedFrom[gameId] = winner[gameId];\n        }\n    }\n\n    // WINNER_CHOOSEN\n    function claimWin(uint256 gameId) public payable\n            gameIsExist(gameId)\n            gameStateEquals(GameState.WINNER_CHOOSEN, gameId)\n            actionExpectedFromPlayer(gameId) {\n        uint256 totalPot = 0;\n        for (uint i = 0;i < N_PLAYERS; ++i) {\n            totalPot += pots[gameId][i];\n        }\n        payable(msg.sender).transfer(totalPot);\n    }\n}\n\n",
  "sourcePath": "/opt/contracts/PokerRoom.sol",
  "compiler": {
    "name": "solc",
    "version": "0.8.7+commit.e28d00a7.Emscripten.clang"
  },
  "schemaVersion": "3.3.4",
  "updatedAt": "2022-05-03T11:20:33.576Z",
  "devdoc": {
    "kind": "dev",
    "methods": {
      "owner()": {
        "details": "Returns the address of the current owner."
      },
      "renounceOwnership()": {
        "details": "Leaves the contract without owner. It will not be possible to call `onlyOwner` functions anymore. Can only be called by the current owner. NOTE: Renouncing ownership will leave the contract without an owner, thereby removing any functionality that is only available to the owner."
      },
      "transferOwnership(address)": {
        "details": "Transfers ownership of the contract to a new account (`newOwner`). Can only be called by the current owner."
      }
    },
    "version": 1
  },
  "userdoc": {
    "kind": "user",
    "methods": {},
    "version": 1
  }
}